{
  "contractName": "CoinFlip",
  "abi": [
    {
      "inputs": [],
      "payable": true,
      "stateMutability": "payable",
      "type": "constructor"
    },
    {
      "anonymous": false,
      "inputs": [
        {
          "indexed": false,
          "internalType": "address",
          "name": "from",
          "type": "address"
        },
        {
          "indexed": false,
          "internalType": "address",
          "name": "to",
          "type": "address"
        },
        {
          "indexed": false,
          "internalType": "uint256",
          "name": "amount",
          "type": "uint256"
        }
      ],
      "name": "DepositSent",
      "type": "event"
    },
    {
      "anonymous": false,
      "inputs": [
        {
          "indexed": false,
          "internalType": "string",
          "name": "description",
          "type": "string"
        }
      ],
      "name": "LogNewProvableQuery",
      "type": "event"
    },
    {
      "anonymous": false,
      "inputs": [
        {
          "indexed": false,
          "internalType": "address",
          "name": "player",
          "type": "address"
        },
        {
          "indexed": false,
          "internalType": "uint256",
          "name": "result",
          "type": "uint256"
        },
        {
          "indexed": false,
          "internalType": "string",
          "name": "_results",
          "type": "string"
        }
      ],
      "name": "Results",
      "type": "event"
    },
    {
      "constant": true,
      "inputs": [],
      "name": "owner",
      "outputs": [
        {
          "internalType": "address",
          "name": "",
          "type": "address"
        }
      ],
      "payable": false,
      "stateMutability": "view",
      "type": "function"
    },
    {
      "constant": false,
      "inputs": [
        {
          "internalType": "uint256",
          "name": "guess",
          "type": "uint256"
        }
      ],
      "name": "placeBet",
      "outputs": [
        {
          "internalType": "bool",
          "name": "",
          "type": "bool"
        }
      ],
      "payable": true,
      "stateMutability": "payable",
      "type": "function"
    },
    {
      "constant": false,
      "inputs": [
        {
          "internalType": "bytes32",
          "name": "_myid",
          "type": "bytes32"
        },
        {
          "internalType": "string",
          "name": "_result",
          "type": "string"
        }
      ],
      "name": "__callback",
      "outputs": [],
      "payable": false,
      "stateMutability": "nonpayable",
      "type": "function"
    },
    {
      "constant": false,
      "inputs": [
        {
          "internalType": "bytes32",
          "name": "_queryId",
          "type": "bytes32"
        },
        {
          "internalType": "string",
          "name": "_result",
          "type": "string"
        },
        {
          "internalType": "bytes",
          "name": "_proof",
          "type": "bytes"
        }
      ],
      "name": "__callback",
      "outputs": [],
      "payable": false,
      "stateMutability": "nonpayable",
      "type": "function"
    },
    {
      "constant": false,
      "inputs": [],
      "name": "Deposit",
      "outputs": [
        {
          "internalType": "uint256",
          "name": "",
          "type": "uint256"
        }
      ],
      "payable": true,
      "stateMutability": "payable",
      "type": "function"
    },
    {
      "constant": false,
      "inputs": [],
      "name": "withdrawAll",
      "outputs": [
        {
          "internalType": "uint256",
          "name": "",
          "type": "uint256"
        }
      ],
      "payable": false,
      "stateMutability": "nonpayable",
      "type": "function"
    },
    {
      "constant": false,
      "inputs": [],
      "name": "withdrawRewards",
      "outputs": [],
      "payable": false,
      "stateMutability": "nonpayable",
      "type": "function"
    },
    {
      "constant": true,
      "inputs": [],
      "name": "getBalance",
      "outputs": [
        {
          "internalType": "uint256",
          "name": "",
          "type": "uint256"
        }
      ],
      "payable": false,
      "stateMutability": "view",
      "type": "function"
    },
    {
      "constant": true,
      "inputs": [],
      "name": "getBetterBalance",
      "outputs": [
        {
          "internalType": "uint256",
          "name": "",
          "type": "uint256"
        }
      ],
      "payable": false,
      "stateMutability": "view",
      "type": "function"
    },
    {
      "constant": true,
      "inputs": [],
      "name": "getContractAddress",
      "outputs": [
        {
          "internalType": "address",
          "name": "",
          "type": "address"
        }
      ],
      "payable": false,
      "stateMutability": "view",
      "type": "function"
    },
    {
      "constant": false,
      "inputs": [
        {
          "internalType": "address",
          "name": "newOwner",
          "type": "address"
        }
      ],
      "name": "changeOwner",
      "outputs": [
        {
          "internalType": "address",
          "name": "",
          "type": "address"
        }
      ],
      "payable": false,
      "stateMutability": "nonpayable",
      "type": "function"
    }
  ],
  "bytecode": "0x608060405267016345785d8a0000341462000082576040517f08c379a000000000000000000000000000000000000000000000000000000000815260040180806020018281038252601f8152602001807f6465706c6f796d656e74206d696e696d756d206e6f742061636869657665640081525060200191505060405180910390fd5b33600560006101000a81548173ffffffffffffffffffffffffffffffffffffffff021916908373ffffffffffffffffffffffffffffffffffffffff1602179055506200011c34600660003073ffffffffffffffffffffffffffffffffffffffff1673ffffffffffffffffffffffffffffffffffffffff168152602001908152602001600020546200013860201b620014f71790919060201c565b5062000132603060f81b620001c160201b60201c565b62000be2565b600080828401905083811015620001b7576040517f08c379a000000000000000000000000000000000000000000000000000000000815260040180806020018281038252601b8152602001807f536166654d6174683a206164646974696f6e206f766572666c6f77000000000081525060200191505060405180910390fd5b8091505092915050565b600073ffffffffffffffffffffffffffffffffffffffff16600160009054906101000a900473ffffffffffffffffffffffffffffffffffffffff1673ffffffffffffffffffffffffffffffffffffffff16148062000251575060006200024f600160009054906101000a900473ffffffffffffffffffffffffffffffffffffffff166200052460201b60201c565b145b156200026b576200026960006200052f60201b60201c565b505b600160009054906101000a900473ffffffffffffffffffffffffffffffffffffffff1673ffffffffffffffffffffffffffffffffffffffff166338cc48316040518163ffffffff1660e01b8152600401602060405180830381600087803b158015620002d657600080fd5b505af1158015620002eb573d6000803e3d6000fd5b505050506040513d60208110156200030257600080fd5b810190808051906020019092919050505073ffffffffffffffffffffffffffffffffffffffff166000809054906101000a900473ffffffffffffffffffffffffffffffffffffffff1673ffffffffffffffffffffffffffffffffffffffff16146200044f57600160009054906101000a900473ffffffffffffffffffffffffffffffffffffffff1673ffffffffffffffffffffffffffffffffffffffff166338cc48316040518163ffffffff1660e01b8152600401602060405180830381600087803b158015620003d257600080fd5b505af1158015620003e7573d6000803e3d6000fd5b505050506040513d6020811015620003fe57600080fd5b81019080805190602001909291905050506000806101000a81548173ffffffffffffffffffffffffffffffffffffffff021916908373ffffffffffffffffffffffffffffffffffffffff1602179055505b6000809054906101000a900473ffffffffffffffffffffffffffffffffffffffff1673ffffffffffffffffffffffffffffffffffffffff1663688dcfd7826040518263ffffffff1660e01b815260040180827effffffffffffffffffffffffffffffffffffffffffffffffffffffffffffff19167effffffffffffffffffffffffffffffffffffffffffffffffffffffffffffff19168152602001915050600060405180830381600087803b1580156200050857600080fd5b505af11580156200051d573d6000803e3d6000fd5b5050505050565b6000813b9050919050565b6000620005416200054860201b60201c565b9050919050565b60008062000570731d3b2638a7cc9f2cb3d298a3da7a90b67e5506ed6200052460201b60201c565b11156200061c57731d3b2638a7cc9f2cb3d298a3da7a90b67e5506ed600160006101000a81548173ffffffffffffffffffffffffffffffffffffffff021916908373ffffffffffffffffffffffffffffffffffffffff160217905550620006126040518060400160405280600b81526020017f6574685f6d61696e6e657400000000000000000000000000000000000000000081525062000b1760201b60201c565b6001905062000b14565b60006200064373c03a2615d5efaf5f49f60b7bb6583eaec212fdf16200052460201b60201c565b1115620006ef5773c03a2615d5efaf5f49f60b7bb6583eaec212fdf1600160006101000a81548173ffffffffffffffffffffffffffffffffffffffff021916908373ffffffffffffffffffffffffffffffffffffffff160217905550620006e56040518060400160405280600c81526020017f6574685f726f707374656e33000000000000000000000000000000000000000081525062000b1760201b60201c565b6001905062000b14565b60006200071673b7a07bcf2ba2f2703b24c0691b5278999c59ac7e6200052460201b60201c565b1115620007c25773b7a07bcf2ba2f2703b24c0691b5278999c59ac7e600160006101000a81548173ffffffffffffffffffffffffffffffffffffffff021916908373ffffffffffffffffffffffffffffffffffffffff160217905550620007b86040518060400160405280600981526020017f6574685f6b6f76616e000000000000000000000000000000000000000000000081525062000b1760201b60201c565b6001905062000b14565b6000620007e973146500cfd35b22e4a392fe0adc06de1a1368ed486200052460201b60201c565b1115620008955773146500cfd35b22e4a392fe0adc06de1a1368ed48600160006101000a81548173ffffffffffffffffffffffffffffffffffffffff021916908373ffffffffffffffffffffffffffffffffffffffff1602179055506200088b6040518060400160405280600b81526020017f6574685f72696e6b65627900000000000000000000000000000000000000000081525062000b1760201b60201c565b6001905062000b14565b6000620008bc73a2998efd205fb9d4b4963afb70778d6354ad3a416200052460201b60201c565b1115620009685773a2998efd205fb9d4b4963afb70778d6354ad3a41600160006101000a81548173ffffffffffffffffffffffffffffffffffffffff021916908373ffffffffffffffffffffffffffffffffffffffff1602179055506200095e6040518060400160405280600a81526020017f6574685f676f65726c690000000000000000000000000000000000000000000081525062000b1760201b60201c565b6001905062000b14565b60006200098f736f485c8bf6fc43ea212e93bbf8ce046c7f1cb4756200052460201b60201c565b1115620009f557736f485c8bf6fc43ea212e93bbf8ce046c7f1cb475600160006101000a81548173ffffffffffffffffffffffffffffffffffffffff021916908373ffffffffffffffffffffffffffffffffffffffff1602179055506001905062000b14565b600062000a1c7320e12a1f859b3feae5fb2a0a32c18f5a65555bbf6200052460201b60201c565b111562000a82577320e12a1f859b3feae5fb2a0a32c18f5a65555bbf600160006101000a81548173ffffffffffffffffffffffffffffffffffffffff021916908373ffffffffffffffffffffffffffffffffffffffff1602179055506001905062000b14565b600062000aa97351efaf4c8b3c9afbd5ab9f4bbc82784ab6ef8faa6200052460201b60201c565b111562000b0f577351efaf4c8b3c9afbd5ab9f4bbc82784ab6ef8faa600160006101000a81548173ffffffffffffffffffffffffffffffffffffffff021916908373ffffffffffffffffffffffffffffffffffffffff1602179055506001905062000b14565b600090505b90565b806002908051906020019062000b2f92919062000b33565b5050565b828054600181600116156101000203166002900490600052602060002090601f016020900481019282601f1062000b7657805160ff191683800117855562000ba7565b8280016001018555821562000ba7579182015b8281111562000ba657825182559160200191906001019062000b89565b5b50905062000bb6919062000bba565b5090565b62000bdf91905b8082111562000bdb57600081600090555060010162000bc1565b5090565b90565b614ee08062000bf26000396000f3fe60806040526004361061009c5760003560e01c806338bbfa501161006457806338bbfa5014610266578063853828b6146103cf5780638da5cb5b146103fa578063a6f9dae114610451578063c7b8981c146104e2578063ed21248c146104f95761009c565b806310fe7c48146100a157806312065fe0146100e75780631218ede91461011257806327dc297e1461013d57806332a2c5d01461020f575b600080fd5b6100cd600480360360208110156100b757600080fd5b8101908080359060200190929190505050610517565b604051808215151515815260200191505060405180910390f35b3480156100f357600080fd5b506100fc610a19565b6040518082815260200191505060405180910390f35b34801561011e57600080fd5b50610127610a38565b6040518082815260200191505060405180910390f35b34801561014957600080fd5b5061020d6004803603604081101561016057600080fd5b81019080803590602001909291908035906020019064010000000081111561018757600080fd5b82018360208201111561019957600080fd5b803590602001918460018302840111640100000000831117156101bb57600080fd5b91908080601f016020809104026020016040519081016040528093929190818152602001838380828437600081840152601f19601f820116905080830192505050505050509192919290505050610a7f565b005b34801561021b57600080fd5b50610224610ac2565b604051808273ffffffffffffffffffffffffffffffffffffffff1673ffffffffffffffffffffffffffffffffffffffff16815260200191505060405180910390f35b34801561027257600080fd5b506103cd6004803603606081101561028957600080fd5b8101908080359060200190929190803590602001906401000000008111156102b057600080fd5b8201836020820111156102c257600080fd5b803590602001918460018302840111640100000000831117156102e457600080fd5b91908080601f016020809104026020016040519081016040528093929190818152602001838380828437600081840152601f19601f8201169050808301925050505050505091929192908035906020019064010000000081111561034757600080fd5b82018360208201111561035957600080fd5b8035906020019184600183028401116401000000008311171561037b57600080fd5b91908080601f016020809104026020016040519081016040528093929190818152602001838380828437600081840152601f19601f820116905080830192505050505050509192919290505050610aca565b005b3480156103db57600080fd5b506103e4610d21565b6040518082815260200191505060405180910390f35b34801561040657600080fd5b5061040f610f7b565b604051808273ffffffffffffffffffffffffffffffffffffffff1673ffffffffffffffffffffffffffffffffffffffff16815260200191505060405180910390f35b34801561045d57600080fd5b506104a06004803603602081101561047457600080fd5b81019080803573ffffffffffffffffffffffffffffffffffffffff169060200190929190505050610fa1565b604051808273ffffffffffffffffffffffffffffffffffffffff1673ffffffffffffffffffffffffffffffffffffffff16815260200191505060405180910390f35b3480156104ee57600080fd5b506104f76110d1565b005b61050161133c565b6040518082815260200191505060405180910390f35b6000662386f26fc10000341015610596576040517f08c379a00000000000000000000000000000000000000000000000000000000081526004018080602001828103825260168152602001807f4d696e696d756d20626574206e6f7420706c616365640000000000000000000081525060200191505060405180910390fd5b60006105ac60023461147190919063ffffffff16565b90506105b6614cc0565b600860003373ffffffffffffffffffffffffffffffffffffffff1673ffffffffffffffffffffffffffffffffffffffff1681526020019081526020016000206040518060800160405290816000820160009054906101000a900473ffffffffffffffffffffffffffffffffffffffff1673ffffffffffffffffffffffffffffffffffffffff1673ffffffffffffffffffffffffffffffffffffffff16815260200160018201548152602001600282015481526020016003820160009054906101000a900460ff1615151515815250509050813073ffffffffffffffffffffffffffffffffffffffff16311015610714576040517f08c379a00000000000000000000000000000000000000000000000000000000081526004018080602001828103825260168152602001807f42616c616e6365206e6f742073756666696369656e740000000000000000000081525060200191505060405180910390fd5b60001515816060015115151461072957600080fd5b61077b34600660003073ffffffffffffffffffffffffffffffffffffffff1673ffffffffffffffffffffffffffffffffffffffff168152602001908152602001600020546114f790919063ffffffff16565b50600061078661157f565b9050610790614d03565b33816000019073ffffffffffffffffffffffffffffffffffffffff16908173ffffffffffffffffffffffffffffffffffffffff16815250506108186108096040518060400160405280600681526020017f72616e646f6d00000000000000000000000000000000000000000000000000008152506115f2565b3461198390919063ffffffff16565b81602001818152505085816040018181525050806009600084815260200190815260200160002060008201518160000160006101000a81548173ffffffffffffffffffffffffffffffffffffffff021916908373ffffffffffffffffffffffffffffffffffffffff16021790555060208201518160010155604082015181600201559050506108a5614cc0565b33816000019073ffffffffffffffffffffffffffffffffffffffff16908173ffffffffffffffffffffffffffffffffffffffff168152505061092d61091e6040518060400160405280600681526020017f72616e646f6d00000000000000000000000000000000000000000000000000008152506115f2565b3461198390919063ffffffff16565b81602001818152505082816040018181525050600181606001901515908115158152505080600860003373ffffffffffffffffffffffffffffffffffffffff1673ffffffffffffffffffffffffffffffffffffffff16815260200190815260200160002060008201518160000160006101000a81548173ffffffffffffffffffffffffffffffffffffffff021916908373ffffffffffffffffffffffffffffffffffffffff160217905550602082015181600101556040820151816002015560608201518160030160006101000a81548160ff0219169083151502179055509050505050505050919050565b60003073ffffffffffffffffffffffffffffffffffffffff1631905090565b6000600660003373ffffffffffffffffffffffffffffffffffffffff1673ffffffffffffffffffffffffffffffffffffffff16815260200190815260200160002054905090565b610abe828260006040519080825280601f01601f191660200182016040528015610ab85781602001600182028038833980820191505090505b50610aca565b5050565b600030905090565b610ad26119cd565b73ffffffffffffffffffffffffffffffffffffffff163373ffffffffffffffffffffffffffffffffffffffff1614610b0957600080fd5b6000610b16848484611cea565b60ff161415610d1c57610b27614cc0565b600860006009600087815260200190815260200160002060000160009054906101000a900473ffffffffffffffffffffffffffffffffffffffff1673ffffffffffffffffffffffffffffffffffffffff1673ffffffffffffffffffffffffffffffffffffffff1681526020019081526020016000206040518060800160405290816000820160009054906101000a900473ffffffffffffffffffffffffffffffffffffffff1673ffffffffffffffffffffffffffffffffffffffff1673ffffffffffffffffffffffffffffffffffffffff16815260200160018201548152602001600282015481526020016003820160009054906101000a900460ff161515151581525050905060006002846040516020018082805190602001908083835b60208310610c695780518252602082019150602081019050602083039250610c46565b6001836020036101000a0380198251168184511680821785525050505050509050019150506040516020818303038152906040528051906020012060001c81610cae57fe5b069050610cbb8186611e1a565b600082606001901515908115158152505060096000868152602001908152602001600020600080820160006101000a81549073ffffffffffffffffffffffffffffffffffffffff021916905560018201600090556002820160009055505050505b505050565b6000600560009054906101000a900473ffffffffffffffffffffffffffffffffffffffff1673ffffffffffffffffffffffffffffffffffffffff163373ffffffffffffffffffffffffffffffffffffffff1614610de6576040517f08c379a00000000000000000000000000000000000000000000000000000000081526004018080602001828103825260138152602001807f596f757265206e6f7420746865206f776e65720000000000000000000000000081525060200191505060405180910390fd5b600660003073ffffffffffffffffffffffffffffffffffffffff1673ffffffffffffffffffffffffffffffffffffffff168152602001908152602001600020543073ffffffffffffffffffffffffffffffffffffffff163114610e4857600080fd5b60003073ffffffffffffffffffffffffffffffffffffffff163190503373ffffffffffffffffffffffffffffffffffffffff166108fc829081150290604051600060405180830381858888f19350505050158015610eaa573d6000803e3d6000fd5b50610efd81600660003073ffffffffffffffffffffffffffffffffffffffff1673ffffffffffffffffffffffffffffffffffffffff1681526020019081526020016000205461198390919063ffffffff16565b503073ffffffffffffffffffffffffffffffffffffffff1631600660003073ffffffffffffffffffffffffffffffffffffffff1673ffffffffffffffffffffffffffffffffffffffff1681526020019081526020016000205414610f5d57fe5b3073ffffffffffffffffffffffffffffffffffffffff163191505090565b600560009054906101000a900473ffffffffffffffffffffffffffffffffffffffff1681565b6000600560009054906101000a900473ffffffffffffffffffffffffffffffffffffffff1673ffffffffffffffffffffffffffffffffffffffff163373ffffffffffffffffffffffffffffffffffffffff1614611066576040517f08c379a00000000000000000000000000000000000000000000000000000000081526004018080602001828103825260138152602001807f596f757265206e6f7420746865206f776e65720000000000000000000000000081525060200191505060405180910390fd5b81600560006101000a81548173ffffffffffffffffffffffffffffffffffffffff021916908373ffffffffffffffffffffffffffffffffffffffff160217905550600560009054906101000a900473ffffffffffffffffffffffffffffffffffffffff169050919050565b6000600660003373ffffffffffffffffffffffffffffffffffffffff1673ffffffffffffffffffffffffffffffffffffffff168152602001908152602001600020541161111d57600080fd5b6000600660003373ffffffffffffffffffffffffffffffffffffffff1673ffffffffffffffffffffffffffffffffffffffff1681526020019081526020016000205490506000600660003373ffffffffffffffffffffffffffffffffffffffff1673ffffffffffffffffffffffffffffffffffffffff1681526020019081526020016000205490503373ffffffffffffffffffffffffffffffffffffffff166108fc839081150290604051600060405180830381858888f193505050501580156111eb573d6000803e3d6000fd5b507fc8f3917c6c1741edea03c36d42209e0e0fcf0735c663623ccb5a69fb554ec98a303384604051808473ffffffffffffffffffffffffffffffffffffffff1673ffffffffffffffffffffffffffffffffffffffff1681526020018373ffffffffffffffffffffffffffffffffffffffff1673ffffffffffffffffffffffffffffffffffffffff168152602001828152602001935050505060405180910390a16112dd82600660003373ffffffffffffffffffffffffffffffffffffffff1673ffffffffffffffffffffffffffffffffffffffff1681526020019081526020016000205461198390919063ffffffff16565b506112f1828261198390919063ffffffff16565b600660003373ffffffffffffffffffffffffffffffffffffffff1673ffffffffffffffffffffffffffffffffffffffff168152602001908152602001600020541461133857fe5b5050565b6000600560009054906101000a900473ffffffffffffffffffffffffffffffffffffffff1673ffffffffffffffffffffffffffffffffffffffff163373ffffffffffffffffffffffffffffffffffffffff1614611401576040517f08c379a00000000000000000000000000000000000000000000000000000000081526004018080602001828103825260138152602001807f596f757265206e6f7420746865206f776e65720000000000000000000000000081525060200191505060405180910390fd5b61145334600660003073ffffffffffffffffffffffffffffffffffffffff1673ffffffffffffffffffffffffffffffffffffffff168152602001908152602001600020546114f790919063ffffffff16565b503073ffffffffffffffffffffffffffffffffffffffff1631905090565b60008083141561148457600090506114f1565b600082840290508284828161149557fe5b04146114ec576040517f08c379a0000000000000000000000000000000000000000000000000000000008152600401808060200182810382526021815260200180614e4b6021913960400191505060405180910390fd5b809150505b92915050565b600080828401905083811015611575576040517f08c379a000000000000000000000000000000000000000000000000000000000815260040180806020018281038252601b8152602001807f536166654d6174683a206164646974696f6e206f766572666c6f77000000000081525060200191505060405180910390fd5b8091505092915050565b60008060009050600062030d409050600061159c83600184612251565b90507fc4dc360d0a9c0677a3379ae0a3d81e887f761e65fdf3d7e00859d1bcd3c4738960405180806020018281038252602a815260200180614e21602a913960400191505060405180910390a180935050505090565b60008073ffffffffffffffffffffffffffffffffffffffff16600160009054906101000a900473ffffffffffffffffffffffffffffffffffffffff1673ffffffffffffffffffffffffffffffffffffffff16148061167a57506000611678600160009054906101000a900473ffffffffffffffffffffffffffffffffffffffff166127ec565b145b1561168b5761168960006127f7565b505b600160009054906101000a900473ffffffffffffffffffffffffffffffffffffffff1673ffffffffffffffffffffffffffffffffffffffff166338cc48316040518163ffffffff1660e01b8152600401602060405180830381600087803b1580156116f557600080fd5b505af1158015611709573d6000803e3d6000fd5b505050506040513d602081101561171f57600080fd5b810190808051906020019092919050505073ffffffffffffffffffffffffffffffffffffffff166000809054906101000a900473ffffffffffffffffffffffffffffffffffffffff1673ffffffffffffffffffffffffffffffffffffffff161461186857600160009054906101000a900473ffffffffffffffffffffffffffffffffffffffff1673ffffffffffffffffffffffffffffffffffffffff166338cc48316040518163ffffffff1660e01b8152600401602060405180830381600087803b1580156117ed57600080fd5b505af1158015611801573d6000803e3d6000fd5b505050506040513d602081101561181757600080fd5b81019080805190602001909291905050506000806101000a81548173ffffffffffffffffffffffffffffffffffffffff021916908373ffffffffffffffffffffffffffffffffffffffff1602179055505b6000809054906101000a900473ffffffffffffffffffffffffffffffffffffffff1673ffffffffffffffffffffffffffffffffffffffff1663524f3889836040518263ffffffff1660e01b81526004018080602001828103825283818151815260200191508051906020019080838360005b838110156118f55780820151818401526020810190506118da565b50505050905090810190601f1680156119225780820380516001836020036101000a031916815260200191505b5092505050602060405180830381600087803b15801561194157600080fd5b505af1158015611955573d6000803e3d6000fd5b505050506040513d602081101561196b57600080fd5b81019080805190602001909291905050509050919050565b60006119c583836040518060400160405280601e81526020017f536166654d6174683a207375627472616374696f6e206f766572666c6f770000815250612808565b905092915050565b60008073ffffffffffffffffffffffffffffffffffffffff16600160009054906101000a900473ffffffffffffffffffffffffffffffffffffffff1673ffffffffffffffffffffffffffffffffffffffff161480611a5557506000611a53600160009054906101000a900473ffffffffffffffffffffffffffffffffffffffff166127ec565b145b15611a6657611a6460006127f7565b505b600160009054906101000a900473ffffffffffffffffffffffffffffffffffffffff1673ffffffffffffffffffffffffffffffffffffffff166338cc48316040518163ffffffff1660e01b8152600401602060405180830381600087803b158015611ad057600080fd5b505af1158015611ae4573d6000803e3d6000fd5b505050506040513d6020811015611afa57600080fd5b810190808051906020019092919050505073ffffffffffffffffffffffffffffffffffffffff166000809054906101000a900473ffffffffffffffffffffffffffffffffffffffff1673ffffffffffffffffffffffffffffffffffffffff1614611c4357600160009054906101000a900473ffffffffffffffffffffffffffffffffffffffff1673ffffffffffffffffffffffffffffffffffffffff166338cc48316040518163ffffffff1660e01b8152600401602060405180830381600087803b158015611bc857600080fd5b505af1158015611bdc573d6000803e3d6000fd5b505050506040513d6020811015611bf257600080fd5b81019080805190602001909291905050506000806101000a81548173ffffffffffffffffffffffffffffffffffffffff021916908373ffffffffffffffffffffffffffffffffffffffff1602179055505b6000809054906101000a900473ffffffffffffffffffffffffffffffffffffffff1673ffffffffffffffffffffffffffffffffffffffff1663c281d19e6040518163ffffffff1660e01b815260040160206040518083038186803b158015611caa57600080fd5b505afa158015611cbe573d6000803e3d6000fd5b505050506040513d6020811015611cd457600080fd5b8101908080519060200190929190505050905090565b60007f4c0000000000000000000000000000000000000000000000000000000000000082600081518110611d1a57fe5b602001015160f81c60f81b7effffffffffffffffffffffffffffffffffffffffffffffffffffffffffffff1916141580611dad57507f500000000000000000000000000000000000000000000000000000000000000082600181518110611d7d57fe5b602001015160f81c60f81b7effffffffffffffffffffffffffffffffffffffffffffffffffffffffffffff191614155b80611dd95750600160ff1682600281518110611dc557fe5b602001015160f81c60f81b60f81c60ff1614155b15611de75760019050611e13565b6000611dfc838686611df76128c8565b61296a565b905080611e0d576002915050611e13565b60009150505b9392505050565b611e22614d03565b600960008381526020019081526020016000206040518060600160405290816000820160009054906101000a900473ffffffffffffffffffffffffffffffffffffffff1673ffffffffffffffffffffffffffffffffffffffff1673ffffffffffffffffffffffffffffffffffffffff168152602001600182015481526020016002820154815250509050828160400151141561203d57611f25611ed36002836020015161147190919063ffffffff16565b60066000846000015173ffffffffffffffffffffffffffffffffffffffff1673ffffffffffffffffffffffffffffffffffffffff168152602001908152602001600020546114f790919063ffffffff16565b50611f8f611f416002836020015161147190919063ffffffff16565b600660003073ffffffffffffffffffffffffffffffffffffffff1673ffffffffffffffffffffffffffffffffffffffff1681526020019081526020016000205461198390919063ffffffff16565b507fe1c477983938361424a5e2261bb6ab0a3f3cb1aae6c9b01055d555b9c8085000816000015184604051808373ffffffffffffffffffffffffffffffffffffffff1673ffffffffffffffffffffffffffffffffffffffff16815260200182815260200180602001828103825260088152602001807f596f752077696e21000000000000000000000000000000000000000000000000815250602001935050505060405180910390a161224c565b828160400151141580156120955750600060066000836000015173ffffffffffffffffffffffffffffffffffffffff1673ffffffffffffffffffffffffffffffffffffffff1681526020019081526020016000205414155b156121a2576120f4816020015160066000846000015173ffffffffffffffffffffffffffffffffffffffff1673ffffffffffffffffffffffffffffffffffffffff1681526020019081526020016000205461198390919063ffffffff16565b507fe1c477983938361424a5e2261bb6ab0a3f3cb1aae6c9b01055d555b9c8085000816000015184604051808373ffffffffffffffffffffffffffffffffffffffff1673ffffffffffffffffffffffffffffffffffffffff16815260200182815260200180602001828103825260108152602001807f536f7272792054727920416761696e2100000000000000000000000000000000815250602001935050505060405180910390a161224b565b7fe1c477983938361424a5e2261bb6ab0a3f3cb1aae6c9b01055d555b9c8085000816000015184604051808373ffffffffffffffffffffffffffffffffffffffff1673ffffffffffffffffffffffffffffffffffffffff16815260200182815260200180602001828103825260108152602001807f536f7272792054727920416761696e2100000000000000000000000000000000815250602001935050505060405180910390a15b5b505050565b60008083118015612263575060208311155b61226c57600080fd5b600a84029350606060016040519080825280601f01601f1916602001820160405280156122a85781602001600182028038833980820191505090505b5090508360f81b816000815181106122bc57fe5b60200101907effffffffffffffffffffffffffffffffffffffffffffffffffffffffffffff1916908160001a905350606060206040519080825280601f01601f1916602001820160405280156123215781602001600182028038833980820191505090505b509050606060206040519080825280601f01601f19166020018201604052801561235a5781602001600182028038833980820191505090505b5090506000612367613015565b905060208352424118600143034018602084015260208252806020830152606060206040519080825280601f01601f1916602001820160405280156123bb5781602001600182028038833980820191505090505b509050886020820152606060086040519080825280601f01601f1916602001820160405280156123fa5781602001600182028038833980820191505090505b50905061240d8260186008846000613332565b50612416614d3a565b6040518060800160405280878152602001888152602001868152602001848152509050600061247b6040518060400160405280600681526020017f72616e646f6d0000000000000000000000000000000000000000000000000000815250838c613391565b9050606060086040519080825280601f01601f1916602001820160405280156124b35781602001600182028038833980820191505090505b50905060208401517f0100000000000000000000000000000000000000000000000000000000000000810460278301537e01000000000000000000000000000000000000000000000000000000000000810460268301537d010000000000000000000000000000000000000000000000000000000000810460258301537c0100000000000000000000000000000000000000000000000000000000810460248301537b01000000000000000000000000000000000000000000000000000000810460238301537a0100000000000000000000000000000000000000000000000000008104602283015379010000000000000000000000000000000000000000000000000081046021830153780100000000000000000000000000000000000000000000000081046020830153506127d98282856001600481106125f257fe5b602002015160028760006004811061260657fe5b60200201516040518082805190602001908083835b6020831061263e578051825260208201915060208101905060208303925061261b565b6001836020036101000a038019825116818451168082178552505050505050905001915050602060405180830381855afa158015612680573d6000803e3d6000fd5b5050506040513d602081101561269557600080fd5b8101908080519060200190929190505050876002600481106126b357fe5b60200201516040516020018085805190602001908083835b602083106126ee57805182526020820191506020810190506020830392506126cb565b6001836020036101000a03801982511681845116808217855250505050505090500184805190602001908083835b6020831061273f578051825260208201915060208101905060208303925061271c565b6001836020036101000a03801982511681845116808217855250505050505090500183815260200182805190602001908083835b602083106127965780518252602082019150602081019050602083039250612773565b6001836020036101000a038019825116818451168082178552505050505050905001945050505050604051602081830303815290604052805190602001206136fe565b8199505050505050505050509392505050565b6000813b9050919050565b600061280161371a565b9050919050565b60008383111582906128b5576040517f08c379a00000000000000000000000000000000000000000000000000000000081526004018080602001828103825283818151815260200191508051906020019080838360005b8381101561287a57808201518184015260208101905061285f565b50505050905090810190601f1680156128a75780820380516001836020036101000a031916815260200191505b509250505060405180910390fd5b5060008385039050809150509392505050565b606060028054600181600116156101000203166002900480601f0160208091040260200160405190810160405280929190818152602001828054600181600116156101000203166002900480156129605780601f1061293557610100808354040283529160200191612960565b820191906000526020600020905b81548152906001019060200180831161294357829003601f168201915b5050505050905090565b600080602060028760458151811061297e57fe5b602001015160f81c60f81b60f81c60ff1601604401019050606060206040519080825280601f01601f1916602001820160405280156129cc5781602001600182028038833980820191505090505b5090506129de87836020846000613332565b50600284876040516020018083805190602001908083835b60208310612a1957805182526020820191506020810190506020830392506129f6565b6001836020036101000a038019825116818451168082178552505050505050905001828152602001925050506040516020818303038152906040526040518082805190602001908083835b60208310612a875780518252602082019150602081019050602083039250612a64565b6001836020036101000a038019825116818451168082178552505050505050905001915050602060405180830381855afa158015612ac9573d6000803e3d6000fd5b5050506040513d6020811015612ade57600080fd5b81019080805190602001909291905050506040516020018082815260200191505060405160208183030381529060405280519060200120818051906020012014612b2d5760009250505061300d565b60606002886001604986010181518110612b4357fe5b602001015160f81c60f81b60f81c60ff16016040519080825280601f01601f191660200182016040528015612b875781602001600182028038833980820191505090505b509050612b9c88604985018351846000613332565b50612c676002826040518082805190602001908083835b60208310612bd65780518252602082019150602081019050602083039250612bb3565b6001836020036101000a038019825116818451168082178552505050505050905001915050602060405180830381855afa158015612c18573d6000803e3d6000fd5b5050506040513d6020811015612c2d57600080fd5b8101908080519060200190929190505050878a6008602088010181518110612c5157fe5b602001015160f81c60f81b60f81c60ff16613c71565b612c77576000935050505061300d565b606060296040519080825280601f01601f191660200182016040528015612cad5781602001600182028038833980820191505090505b509050612cc289602086016029846000613332565b506060604080519080825280601f01601f191660200182016040528015612cf85781602001600182028038833980820191505090505b5090506000604184516029602089010101019050612d1e8b604083036040856000613332565b5060006002836040518082805190602001908083835b60208310612d575780518252602082019150602081019050602083039250612d34565b6001836020036101000a038019825116818451168082178552505050505050905001915050602060405180830381855afa158015612d99573d6000803e3d6000fd5b5050506040513d6020811015612dae57600080fd5b8101908080519060200190929190505050905083816040516020018083805190602001908083835b60208310612df95780518252602082019150602081019050602083039250612dd6565b6001836020036101000a0380198251168184511680821785525050505050509050018281526020019250505060405160208183030381529060405280519060200120600360008d8152602001908152602001600020541415612e7157600360008c815260200190815260200160002060009055612e81565b600097505050505050505061300d565b606060496040519080825280601f01601f191660200182016040528015612eb75781602001600182028038833980820191505090505b509050612ec98d896049846000613332565b50612f726002826040518082805190602001908083835b60208310612f035780518252602082019150602081019050602083039250612ee0565b6001836020036101000a038019825116818451168082178552505050505050905001915050602060405180830381855afa158015612f45573d6000803e3d6000fd5b5050506040513d6020811015612f5a57600080fd5b81019080805190602001909291905050508786613d21565b612f875760009850505050505050505061300d565b6004600083815260200190815260200160002060009054906101000a900460ff16612fe157612fb68d84613edf565b6004600084815260200190815260200160002060006101000a81548160ff0219169083151502179055505b6004600083815260200190815260200160002060009054906101000a900460ff16985050505050505050505b949350505050565b60008073ffffffffffffffffffffffffffffffffffffffff16600160009054906101000a900473ffffffffffffffffffffffffffffffffffffffff1673ffffffffffffffffffffffffffffffffffffffff16148061309d5750600061309b600160009054906101000a900473ffffffffffffffffffffffffffffffffffffffff166127ec565b145b156130ae576130ac60006127f7565b505b600160009054906101000a900473ffffffffffffffffffffffffffffffffffffffff1673ffffffffffffffffffffffffffffffffffffffff166338cc48316040518163ffffffff1660e01b8152600401602060405180830381600087803b15801561311857600080fd5b505af115801561312c573d6000803e3d6000fd5b505050506040513d602081101561314257600080fd5b810190808051906020019092919050505073ffffffffffffffffffffffffffffffffffffffff166000809054906101000a900473ffffffffffffffffffffffffffffffffffffffff1673ffffffffffffffffffffffffffffffffffffffff161461328b57600160009054906101000a900473ffffffffffffffffffffffffffffffffffffffff1673ffffffffffffffffffffffffffffffffffffffff166338cc48316040518163ffffffff1660e01b8152600401602060405180830381600087803b15801561321057600080fd5b505af1158015613224573d6000803e3d6000fd5b505050506040513d602081101561323a57600080fd5b81019080805190602001909291905050506000806101000a81548173ffffffffffffffffffffffffffffffffffffffff021916908373ffffffffffffffffffffffffffffffffffffffff1602179055505b6000809054906101000a900473ffffffffffffffffffffffffffffffffffffffff1673ffffffffffffffffffffffffffffffffffffffff1663abaa5f3e6040518163ffffffff1660e01b815260040160206040518083038186803b1580156132f257600080fd5b505afa158015613306573d6000803e3d6000fd5b505050506040513d602081101561331c57600080fd5b8101908080519060200190929190505050905090565b606060008285019050808451101561334957600080fd5b600086602001905060008460200190505b868860200101821015613382578189015180828801525060208201915060208101905061335a565b85935050505095945050505050565b60008073ffffffffffffffffffffffffffffffffffffffff16600160009054906101000a900473ffffffffffffffffffffffffffffffffffffffff1673ffffffffffffffffffffffffffffffffffffffff16148061341957506000613417600160009054906101000a900473ffffffffffffffffffffffffffffffffffffffff166127ec565b145b1561342a5761342860006127f7565b505b600160009054906101000a900473ffffffffffffffffffffffffffffffffffffffff1673ffffffffffffffffffffffffffffffffffffffff166338cc48316040518163ffffffff1660e01b8152600401602060405180830381600087803b15801561349457600080fd5b505af11580156134a8573d6000803e3d6000fd5b505050506040513d60208110156134be57600080fd5b810190808051906020019092919050505073ffffffffffffffffffffffffffffffffffffffff166000809054906101000a900473ffffffffffffffffffffffffffffffffffffffff1673ffffffffffffffffffffffffffffffffffffffff161461360757600160009054906101000a900473ffffffffffffffffffffffffffffffffffffffff1673ffffffffffffffffffffffffffffffffffffffff166338cc48316040518163ffffffff1660e01b8152600401602060405180830381600087803b15801561358c57600080fd5b505af11580156135a0573d6000803e3d6000fd5b505050506040513d60208110156135b657600080fd5b81019080805190602001909291905050506000806101000a81548173ffffffffffffffffffffffffffffffffffffffff021916908373ffffffffffffffffffffffffffffffffffffffff1602179055505b6060600460405190808252806020026020018201604052801561363e57816020015b60608152602001906001900390816136295790505b5090508360006004811061364e57fe5b60200201518160008151811061366057fe5b60200260200101819052508360016004811061367857fe5b60200201518160018151811061368a57fe5b6020026020010181905250836002600481106136a257fe5b6020020151816002815181106136b457fe5b6020026020010181905250836003600481106136cc57fe5b6020020151816003815181106136de57fe5b60200260200101819052506136f48582856142f7565b9150509392505050565b8060036000848152602001908152602001600020819055505050565b60008061373a731d3b2638a7cc9f2cb3d298a3da7a90b67e5506ed6127ec565b11156137dc57731d3b2638a7cc9f2cb3d298a3da7a90b67e5506ed600160006101000a81548173ffffffffffffffffffffffffffffffffffffffff021916908373ffffffffffffffffffffffffffffffffffffffff1602179055506137d36040518060400160405280600b81526020017f6574685f6d61696e6e6574000000000000000000000000000000000000000000815250614859565b60019050613c6e565b60006137fb73c03a2615d5efaf5f49f60b7bb6583eaec212fdf16127ec565b111561389d5773c03a2615d5efaf5f49f60b7bb6583eaec212fdf1600160006101000a81548173ffffffffffffffffffffffffffffffffffffffff021916908373ffffffffffffffffffffffffffffffffffffffff1602179055506138946040518060400160405280600c81526020017f6574685f726f707374656e330000000000000000000000000000000000000000815250614859565b60019050613c6e565b60006138bc73b7a07bcf2ba2f2703b24c0691b5278999c59ac7e6127ec565b111561395e5773b7a07bcf2ba2f2703b24c0691b5278999c59ac7e600160006101000a81548173ffffffffffffffffffffffffffffffffffffffff021916908373ffffffffffffffffffffffffffffffffffffffff1602179055506139556040518060400160405280600981526020017f6574685f6b6f76616e0000000000000000000000000000000000000000000000815250614859565b60019050613c6e565b600061397d73146500cfd35b22e4a392fe0adc06de1a1368ed486127ec565b1115613a1f5773146500cfd35b22e4a392fe0adc06de1a1368ed48600160006101000a81548173ffffffffffffffffffffffffffffffffffffffff021916908373ffffffffffffffffffffffffffffffffffffffff160217905550613a166040518060400160405280600b81526020017f6574685f72696e6b656279000000000000000000000000000000000000000000815250614859565b60019050613c6e565b6000613a3e73a2998efd205fb9d4b4963afb70778d6354ad3a416127ec565b1115613ae05773a2998efd205fb9d4b4963afb70778d6354ad3a41600160006101000a81548173ffffffffffffffffffffffffffffffffffffffff021916908373ffffffffffffffffffffffffffffffffffffffff160217905550613ad76040518060400160405280600a81526020017f6574685f676f65726c6900000000000000000000000000000000000000000000815250614859565b60019050613c6e565b6000613aff736f485c8bf6fc43ea212e93bbf8ce046c7f1cb4756127ec565b1115613b6357736f485c8bf6fc43ea212e93bbf8ce046c7f1cb475600160006101000a81548173ffffffffffffffffffffffffffffffffffffffff021916908373ffffffffffffffffffffffffffffffffffffffff16021790555060019050613c6e565b6000613b827320e12a1f859b3feae5fb2a0a32c18f5a65555bbf6127ec565b1115613be6577320e12a1f859b3feae5fb2a0a32c18f5a65555bbf600160006101000a81548173ffffffffffffffffffffffffffffffffffffffff021916908373ffffffffffffffffffffffffffffffffffffffff16021790555060019050613c6e565b6000613c057351efaf4c8b3c9afbd5ab9f4bbc82784ab6ef8faa6127ec565b1115613c69577351efaf4c8b3c9afbd5ab9f4bbc82784ab6ef8faa600160006101000a81548173ffffffffffffffffffffffffffffffffffffffff021916908373ffffffffffffffffffffffffffffffffffffffff16021790555060019050613c6e565b600090505b90565b6000806001905082845114613c8557600080fd5b60008090505b83811015613d1557848181518110613c9f57fe5b602001015160f81c60f81b7effffffffffffffffffffffffffffffffffffffffffffffffffffffffffffff1916868260208110613cd857fe5b1a60f81b7effffffffffffffffffffffffffffffffffffffffffffffffffffffffffffff191614613d0857600091505b8080600101915050613c8b565b50809150509392505050565b6000806000806000606060206040519080825280601f01601f191660200182016040528015613d5f5781602001600182028038833980820191505090505b5090506000602089600381518110613d7357fe5b602001015160f81c60f81b60f81c60ff16036004019050613d9989826020856000613332565b9150606060206040519080825280601f01601f191660200182016040528015613dd15781602001600182028038833980820191505090505b509050602282019150613e0d8a60208c6001860381518110613def57fe5b602001015160f81c60f81b60f81c60ff160384016020846000613332565b90506020830151945060208101519350613e2a8b601b8787614873565b80975081985050508573ffffffffffffffffffffffffffffffffffffffff16898051906020012060001c73ffffffffffffffffffffffffffffffffffffffff161415613e80576001975050505050505050613ed8565b613e8d8b601c8787614873565b80975081985050508573ffffffffffffffffffffffffffffffffffffffff16898051906020012060001c73ffffffffffffffffffffffffffffffffffffffff16149750505050505050505b9392505050565b60008060606002856001860181518110613ef557fe5b602001015160f81c60f81b60f81c60ff16016040519080825280601f01601f191660200182016040528015613f395781602001600182028038833980820191505090505b509050613f4b85858351846000613332565b506060604080519080825280601f01601f191660200182016040528015613f815781602001600182028038833980820191505090505b509050613f948660046040846000613332565b50606060626040519080825280601f01601f191660200182016040528015613fcb5781602001600182028038833980820191505090505b509050600160f81b81600081518110613fe057fe5b60200101907effffffffffffffffffffffffffffffffffffffffffffffffffffffffffffff1916908160001a90535061402187604188036041846001613332565b5060606040518060400160405280602081526020017ffd94fa71bc0ba10d39d464d0d8f465efeef0a2764e3887fcc9df41ded20f505c815250905061406c8160006020856042613332565b506141156002836040518082805190602001908083835b602083106140a65780518252602082019150602081019050602083039250614083565b6001836020036101000a038019825116818451168082178552505050505050905001915050602060405180830381855afa1580156140e8573d6000803e3d6000fd5b5050506040513d60208110156140fd57600080fd5b81019080805190602001909291905050508585613d21565b94508461412a576000955050505050506142f1565b6060604051806060016040528060408152602001614e6c604091399050606060426040519080825280601f01601f19166020018201604052801561417d5781602001600182028038833980820191505090505b50905060fe60f81b8160008151811061419257fe5b60200101907effffffffffffffffffffffffffffffffffffffffffffffffffffffffffffff1916908160001a9053506141d18a60036041846001613332565b50606060028b6045815181106141e357fe5b602001015160f81c60f81b60f81c60ff16016040519080825280601f01601f1916602001820160405280156142275781602001600182028038833980820191505090505b50905061423a8b60448351846000613332565b506142e36002836040518082805190602001908083835b602083106142745780518252602082019150602081019050602083039250614251565b6001836020036101000a038019825116818451168082178552505050505050905001915050602060405180830381855afa1580156142b6573d6000803e3d6000fd5b5050506040513d60208110156142cb57600080fd5b81019080805190602001909291905050508285613d21565b975087985050505050505050505b92915050565b60008073ffffffffffffffffffffffffffffffffffffffff16600160009054906101000a900473ffffffffffffffffffffffffffffffffffffffff1673ffffffffffffffffffffffffffffffffffffffff16148061437f5750600061437d600160009054906101000a900473ffffffffffffffffffffffffffffffffffffffff166127ec565b145b156143905761438e60006127f7565b505b600160009054906101000a900473ffffffffffffffffffffffffffffffffffffffff1673ffffffffffffffffffffffffffffffffffffffff166338cc48316040518163ffffffff1660e01b8152600401602060405180830381600087803b1580156143fa57600080fd5b505af115801561440e573d6000803e3d6000fd5b505050506040513d602081101561442457600080fd5b810190808051906020019092919050505073ffffffffffffffffffffffffffffffffffffffff166000809054906101000a900473ffffffffffffffffffffffffffffffffffffffff1673ffffffffffffffffffffffffffffffffffffffff161461456d57600160009054906101000a900473ffffffffffffffffffffffffffffffffffffffff1673ffffffffffffffffffffffffffffffffffffffff166338cc48316040518163ffffffff1660e01b8152600401602060405180830381600087803b1580156144f257600080fd5b505af1158015614506573d6000803e3d6000fd5b505050506040513d602081101561451c57600080fd5b81019080805190602001909291905050506000806101000a81548173ffffffffffffffffffffffffffffffffffffffff021916908373ffffffffffffffffffffffffffffffffffffffff1602179055505b60008060009054906101000a900473ffffffffffffffffffffffffffffffffffffffff1673ffffffffffffffffffffffffffffffffffffffff16632ef3accc86856040518363ffffffff1660e01b81526004018080602001838152602001828103825284818151815260200191508051906020019080838360005b838110156146035780820151818401526020810190506145e8565b50505050905090810190601f1680156146305780820380516001836020036101000a031916815260200191505b509350505050602060405180830381600087803b15801561465057600080fd5b505af1158015614664573d6000803e3d6000fd5b505050506040513d602081101561467a57600080fd5b81019080805190602001909291905050509050823a02670de0b6b3a7640000018111156146ad576000801b915050614852565b60606146b8856148b7565b90506000809054906101000a900473ffffffffffffffffffffffffffffffffffffffff1673ffffffffffffffffffffffffffffffffffffffff1663c55c1cb68360008985896040518663ffffffff1660e01b8152600401808581526020018060200180602001848152602001838103835286818151815260200191508051906020019080838360005b8381101561475c578082015181840152602081019050614741565b50505050905090810190601f1680156147895780820380516001836020036101000a031916815260200191505b50838103825285818151815260200191508051906020019080838360005b838110156147c25780820151818401526020810190506147a7565b50505050905090810190601f1680156147ef5780820380516001836020036101000a031916815260200191505b5096505050505050506020604051808303818588803b15801561481157600080fd5b505af1158015614825573d6000803e3d6000fd5b50505050506040513d602081101561483c57600080fd5b8101908080519060200190929190505050925050505b9392505050565b806002908051906020019061486f929190614d61565b5050565b60008060008060405188815287602082015286604082015285606082015260208160808360006001610bb8f192508051915050818193509350505094509492505050565b60606148c1614937565b6148c9614de1565b6148d581610400614943565b6148de8161498d565b60008090505b8351811015614920576149138482815181106148fc57fe5b60200260200101518361499b90919063ffffffff16565b80806001019150506148e4565b5061492a816149c0565b8060000151915050919050565b60405180590338823950565b600081905060006020828161495457fe5b061461496d576020818161496457fe5b06602003810190505b808360200181815250506040518084526000815281810160405250505050565b6149988160046149ce565b50565b6149a882600283516149ef565b6149bb8183614b2f90919063ffffffff16565b505050565b6149cb8160076149ce565b50565b6149eb601f60058360ff16901b1783614bda90919063ffffffff16565b5050565b60178111614a1b57614a168160058460ff16901b60ff161784614bda90919063ffffffff16565b614b2a565b60ff8111614a5c57614a40601860058460ff16901b1784614bda90919063ffffffff16565b614a5681600185614c1a9092919063ffffffff16565b50614b29565b61ffff8111614a9e57614a82601960058460ff16901b1784614bda90919063ffffffff16565b614a9881600285614c1a9092919063ffffffff16565b50614b28565b63ffffffff8111614ae257614ac6601a60058460ff16901b1784614bda90919063ffffffff16565b614adc81600485614c1a9092919063ffffffff16565b50614b27565b67ffffffffffffffff8111614b2657614b0e601b60058460ff16901b1784614bda90919063ffffffff16565b614b2481600885614c1a9092919063ffffffff16565b505b5b5b5b5b505050565b614b37614de1565b82602001518360000151518351011115614b6757614b66836002614b6086602001518651614c81565b02614c9d565b5b60008060008451905085518051602081830101945086518101825260208701935050505b60208110614bae5781518352602083019250602082019150602081039050614b8b565b60006001826020036101000a039050801983511681855116818117865250508694505050505092915050565b81602001516001836000015151011115614c0057614bff826002846020015102614c9d565b5b815180516020818301018381536001820183525050505050565b614c22614de1565b836020015184600001515183011115614c5057614c4f846002614c49876020015186614c81565b02614c9d565b5b60006001836101000a0390508451805184818301018684198251161781528582018352505050849150509392505050565b600081831115614c9357829050614c97565b8190505b92915050565b606082600001519050614cb08383614943565b614cba8382614b2f565b50505050565b6040518060800160405280600073ffffffffffffffffffffffffffffffffffffffff16815260200160008152602001600080191681526020016000151581525090565b6040518060600160405280600073ffffffffffffffffffffffffffffffffffffffff16815260200160008152602001600081525090565b60405180608001604052806004905b6060815260200190600190039081614d495790505090565b828054600181600116156101000203166002900490600052602060002090601f016020900481019282601f10614da257805160ff1916838001178555614dd0565b82800160010185558215614dd0579182015b82811115614dcf578251825591602001919060010190614db4565b5b509050614ddd9190614dfb565b5090565b604051806040016040528060608152602001600081525090565b614e1d91905b80821115614e19576000816000905550600101614e01565b5090565b9056fe466c69702074616b696e6720706c6163652c207374616e6420627920666f7220726573756c74732e2e2e536166654d6174683a206d756c7469706c69636174696f6e206f766572666c6f777fb956469c5c9b89840d55b43537e66a98dd4811ea0a27224272c2e5622911e8537a2f8e86a46baec82864e98dd01e9ccc2f8bc5dfc9cbe5a91a290498dd96e4a265627a7a7231582003914306dfb1345cc5c5dff1968a5754f618b2a94f740e587ab5a8f1b2ccd4d264736f6c634300050c0032",
  "source": "pragma solidity 0.5.12;\nimport \"./provableAPI.sol\";\nimport { SafeMath } from \"./SafeMath.sol\";\n\ncontract CoinFlip is usingProvable{\n\nusing SafeMath for uint;\n\naddress public owner;\nmapping(address => uint) balance;\n\nuint256 constant NUM_RANDOM_BYTES_REQUESTED = 1;\nuint256 private latestNumber;\n\nmapping(address => Bet) players;\nmapping(bytes32 => Pending) playing;\n\nevent LogNewProvableQuery(string description);\nevent DepositSent(address from, address to, uint amount);\nevent Results(address player, uint256 result, string _results);\n\nstruct Bet {\n      address player;\n      uint value;\n      bytes32 currentgame;\n      bool waiting;\n    }\n\nstruct Pending{\n      address player;\n      uint value;\n      uint guess;\n    }\n\nconstructor() public payable {\n      require (msg.value == .1 ether, \"deployment minimum not achieved\");\n      owner = msg.sender;\n      balance[address(this)].add(msg.value);\n      provable_setProof(proofType_Ledger);\n    }\n\nmodifier onlyOwner {\n\n      require(msg.sender == owner, \"Youre not the owner\");\n       _;\n    }\n\nmodifier RequiredtoBet {\n\n      require(msg.value >= 0.01 ether, \"Minimum bet not placed\");\n       _;\n    }\n\nfunction placeBet(uint guess) public payable RequiredtoBet returns (bool){\n\n      uint _balance = msg.value.mul(2);\n      Bet memory _bet = players[msg.sender];\n\n      require (address(this).balance >= _balance, \"Balance not sufficient\");\n      require (_bet.waiting == false);\n\n      balance[address(this)].add(msg.value);\n      bytes32 Id = update();\n\n      Pending memory newPending;\n      newPending.player = msg.sender;\n      newPending.value = msg.value.sub(provable_getPrice(\"random\"));\n      newPending.guess = guess;\n      playing[Id] = newPending;\n\n      Bet memory newBet;\n      newBet.player = msg.sender;\n      newBet.value = msg.value.sub(provable_getPrice(\"random\"));\n      newBet.currentgame = Id;\n      newBet.waiting = true;\n      players[msg.sender] = newBet;\n\n      }\n\nfunction __callback(bytes32 _queryId, string memory _result, bytes memory _proof) public{\n      require(msg.sender == provable_cbAddress());\n\n      if (provable_randomDS_proofVerify__returnCode(_queryId, _result, _proof) == 0){\n\n      Bet memory _player = players[playing[_queryId].player];\n      uint256 randomNumber = uint256(keccak256(abi.encodePacked(_result))) % 2;\n      verifyFlip(randomNumber, _queryId);\n      _player.waiting = false;\n\n      delete (playing[_queryId]);\n\n      }\n\n    }\n\nfunction verifyFlip(uint randomNumber, bytes32 _queryId) internal {\n\n      Pending memory _bet = playing[_queryId];\n\n      if(_bet.guess == randomNumber){\n\n      balance[_bet.player].add(_bet.value.mul(2));\n      balance[address(this)].sub(_bet.value.mul(2));\n      emit Results(_bet.player,randomNumber,\"You win!\");\n      }\n\n      else if(_bet.guess != randomNumber && balance[_bet.player] != 0){\n\n      balance[_bet.player].sub(_bet.value);\n      emit Results(_bet.player,randomNumber,\"Sorry Try Again!\");\n      }\n\n      else{\n\n      emit Results(_bet.player,randomNumber,\"Sorry Try Again!\");\n\n          }\n\n    }\n\nfunction update() internal returns (bytes32){\n\n      uint256 QUERY_EXECUTION_DELAY = 0;\n      uint256 GAS_FOR_CALLBACK = 200000;\n      bytes32 queryId = provable_newRandomDSQuery(\n          QUERY_EXECUTION_DELAY,\n          NUM_RANDOM_BYTES_REQUESTED,\n          GAS_FOR_CALLBACK\n          );\n\n      emit LogNewProvableQuery(\"Flip taking place, stand by for results...\");\n      return queryId;\n\n    }\n\nfunction Deposit() public payable onlyOwner returns (uint){\n\n      balance[address(this)].add(msg.value);\n      return address(this).balance;\n    }\n\nfunction withdrawAll() public onlyOwner returns (uint){\n      require(address(this).balance == balance[address(this)]);\n\n      uint oldBalance = address(this).balance;\n      msg.sender.transfer(oldBalance);\n\n      balance[address(this)].sub(oldBalance);\n\n      assert(balance[address(this)] == address(this).balance);\n      return address(this).balance;\n    }\n\nfunction withdrawRewards() public {\n\n      require(balance[msg.sender] > 0);\n\n      uint _balance = balance[msg.sender];\n      uint previousSenderBalance = balance[msg.sender];\n\n      msg.sender.transfer(_balance);\n      emit DepositSent(address(this),msg.sender, _balance);\n\n      balance[msg.sender].sub(_balance);\n\n      assert(balance[msg.sender] == previousSenderBalance.sub(_balance));\n    }\n\nfunction getBalance() public view returns (uint) {\n\n      return address(this).balance;\n    }\n\nfunction getBetterBalance() public view returns (uint) {\n\n      return balance[msg.sender];\n    }\n\nfunction getContractAddress() public view returns(address){\n\n      return address(this);\n    }\n\nfunction changeOwner(address newOwner) public onlyOwner returns (address){\n\n      owner = newOwner;\n      return owner;\n    }\n\n}\n",
  "sourcePath": "/Users/user/Documents/CoinFlip-dapp/contracts/CoinFlip.sol",
  "compiler": {
    "name": "solc",
    "version": "0.5.12+commit.7709ece9.Emscripten.clang"
  },
  "schemaVersion": "3.0.16",
  "updatedAt": "2021-02-13T23:44:32.530Z",
  "devdoc": {
    "methods": {
      "__callback(bytes32,string)": {
        "details": "The following `__callback` functions are just placeholders ideally     meant to be defined in child contract when proofs are used.     The function bodies simply silence compiler warnings."
      }
    }
  },
  "userdoc": {
    "methods": {}
  }
}