{
  "contractName": "CoinFlip",
  "abi": [
    {
      "inputs": [],
      "payable": true,
      "stateMutability": "payable",
      "type": "constructor"
    },
    {
      "anonymous": false,
      "inputs": [
        {
          "indexed": false,
          "internalType": "address",
          "name": "from",
          "type": "address"
        },
        {
          "indexed": false,
          "internalType": "address",
          "name": "to",
          "type": "address"
        },
        {
          "indexed": false,
          "internalType": "uint256",
          "name": "amount",
          "type": "uint256"
        }
      ],
      "name": "DepositSent",
      "type": "event"
    },
    {
      "anonymous": false,
      "inputs": [
        {
          "indexed": false,
          "internalType": "address",
          "name": "player",
          "type": "address"
        },
        {
          "indexed": false,
          "internalType": "string",
          "name": "_results",
          "type": "string"
        }
      ],
      "name": "Results",
      "type": "event"
    },
    {
      "constant": true,
      "inputs": [],
      "name": "owner",
      "outputs": [
        {
          "internalType": "address",
          "name": "",
          "type": "address"
        }
      ],
      "payable": false,
      "stateMutability": "view",
      "type": "function"
    },
    {
      "constant": false,
      "inputs": [],
      "name": "Deposit",
      "outputs": [
        {
          "internalType": "uint256",
          "name": "",
          "type": "uint256"
        }
      ],
      "payable": true,
      "stateMutability": "payable",
      "type": "function"
    },
    {
      "constant": true,
      "inputs": [],
      "name": "getBalance",
      "outputs": [
        {
          "internalType": "uint256",
          "name": "",
          "type": "uint256"
        }
      ],
      "payable": false,
      "stateMutability": "view",
      "type": "function"
    },
    {
      "constant": true,
      "inputs": [],
      "name": "getBetterBalance",
      "outputs": [
        {
          "internalType": "uint256",
          "name": "",
          "type": "uint256"
        }
      ],
      "payable": false,
      "stateMutability": "view",
      "type": "function"
    },
    {
      "constant": true,
      "inputs": [],
      "name": "getContractAddress",
      "outputs": [
        {
          "internalType": "address",
          "name": "",
          "type": "address"
        }
      ],
      "payable": false,
      "stateMutability": "view",
      "type": "function"
    },
    {
      "constant": false,
      "inputs": [
        {
          "internalType": "address",
          "name": "newOwner",
          "type": "address"
        }
      ],
      "name": "changeOwner",
      "outputs": [
        {
          "internalType": "address",
          "name": "",
          "type": "address"
        }
      ],
      "payable": false,
      "stateMutability": "nonpayable",
      "type": "function"
    },
    {
      "constant": false,
      "inputs": [],
      "name": "withdrawAll",
      "outputs": [
        {
          "internalType": "uint256",
          "name": "",
          "type": "uint256"
        }
      ],
      "payable": false,
      "stateMutability": "nonpayable",
      "type": "function"
    },
    {
      "constant": false,
      "inputs": [],
      "name": "withdrawRewards",
      "outputs": [],
      "payable": false,
      "stateMutability": "nonpayable",
      "type": "function"
    },
    {
      "constant": false,
      "inputs": [
        {
          "internalType": "uint256",
          "name": "guess",
          "type": "uint256"
        }
      ],
      "name": "placeBet",
      "outputs": [
        {
          "internalType": "bool",
          "name": "",
          "type": "bool"
        }
      ],
      "payable": true,
      "stateMutability": "payable",
      "type": "function"
    }
  ],
  "bytecode": "0x6080604052670de0b6b3a76400003414610081576040517f08c379a000000000000000000000000000000000000000000000000000000000815260040180806020018281038252601f8152602001807f6465706c6f796d656e74206d696e696d756d206e6f742061636869657665640081525060200191505060405180910390fd5b336000806101000a81548173ffffffffffffffffffffffffffffffffffffffff021916908373ffffffffffffffffffffffffffffffffffffffff160217905550610d43806100d06000396000f3fe6080604052600436106100865760003560e01c8063853828b611610059578063853828b61461017e5780638da5cb5b146101a9578063a6f9dae114610200578063c7b8981c14610291578063ed21248c146102a857610086565b806310fe7c481461008b57806312065fe0146100d15780631218ede9146100fc57806332a2c5d014610127575b600080fd5b6100b7600480360360208110156100a157600080fd5b81019080803590602001909291905050506102c6565b604051808215151515815260200191505060405180910390f35b3480156100dd57600080fd5b506100e66106d9565b6040518082815260200191505060405180910390f35b34801561010857600080fd5b506101116106f8565b6040518082815260200191505060405180910390f35b34801561013357600080fd5b5061013c61073f565b604051808273ffffffffffffffffffffffffffffffffffffffff1673ffffffffffffffffffffffffffffffffffffffff16815260200191505060405180910390f35b34801561018a57600080fd5b50610193610747565b6040518082815260200191505060405180910390f35b3480156101b557600080fd5b506101be610886565b604051808273ffffffffffffffffffffffffffffffffffffffff1673ffffffffffffffffffffffffffffffffffffffff16815260200191505060405180910390f35b34801561020c57600080fd5b5061024f6004803603602081101561022357600080fd5b81019080803573ffffffffffffffffffffffffffffffffffffffff1690602001909291905050506108ab565b604051808273ffffffffffffffffffffffffffffffffffffffff1673ffffffffffffffffffffffffffffffffffffffff16815260200191505060405180910390f35b34801561029d57600080fd5b506102a66109d8565b005b6102b0610c2d565b6040518082815260200191505060405180910390f35b600067016345785d8a0000341015610346576040517f08c379a00000000000000000000000000000000000000000000000000000000081526004018080602001828103825260168152602001807f4d696e696d756d20626574206e6f7420706c616365640000000000000000000081525060200191505060405180910390fd5b6000346002029050803073ffffffffffffffffffffffffffffffffffffffff163110156103db576040517f08c379a00000000000000000000000000000000000000000000000000000000081526004018080602001828103825260168152602001807f42616c616e6365206e6f742073756666696369656e740000000000000000000081525060200191505060405180910390fd5b600242816103e557fe5b068314156104e05780600160003373ffffffffffffffffffffffffffffffffffffffff1673ffffffffffffffffffffffffffffffffffffffff168152602001908152602001600020600082825401925050819055507fe195f852b4c61022bf99c8197f0f2321b8a27585bbec61e3377aae8d4abdb84a33604051808273ffffffffffffffffffffffffffffffffffffffff1673ffffffffffffffffffffffffffffffffffffffff16815260200180602001828103825260088152602001807f596f752077696e210000000000000000000000000000000000000000000000008152506020019250505060405180910390a160019150506106d4565b600242816104ea57fe5b06831415801561053a57506000600160003373ffffffffffffffffffffffffffffffffffffffff1673ffffffffffffffffffffffffffffffffffffffff1681526020019081526020016000205414155b156106325780600160003373ffffffffffffffffffffffffffffffffffffffff1673ffffffffffffffffffffffffffffffffffffffff168152602001908152602001600020600082825403925050819055507fe195f852b4c61022bf99c8197f0f2321b8a27585bbec61e3377aae8d4abdb84a33604051808273ffffffffffffffffffffffffffffffffffffffff1673ffffffffffffffffffffffffffffffffffffffff16815260200180602001828103825260108152602001807f536f7272792054727920416761696e21000000000000000000000000000000008152506020019250505060405180910390a160009150506106d4565b7fe195f852b4c61022bf99c8197f0f2321b8a27585bbec61e3377aae8d4abdb84a33604051808273ffffffffffffffffffffffffffffffffffffffff1673ffffffffffffffffffffffffffffffffffffffff16815260200180602001828103825260108152602001807f536f7272792054727920416761696e21000000000000000000000000000000008152506020019250505060405180910390a160009150505b919050565b60003073ffffffffffffffffffffffffffffffffffffffff1631905090565b6000600160003373ffffffffffffffffffffffffffffffffffffffff1673ffffffffffffffffffffffffffffffffffffffff16815260200190815260200160002054905090565b600030905090565b60008060009054906101000a900473ffffffffffffffffffffffffffffffffffffffff1673ffffffffffffffffffffffffffffffffffffffff163373ffffffffffffffffffffffffffffffffffffffff161461080b576040517f08c379a00000000000000000000000000000000000000000000000000000000081526004018080602001828103825260138152602001807f596f757265206e6f7420746865206f776e65720000000000000000000000000081525060200191505060405180910390fd5b3373ffffffffffffffffffffffffffffffffffffffff166108fc3073ffffffffffffffffffffffffffffffffffffffff16319081150290604051600060405180830381858888f19350505050158015610868573d6000803e3d6000fd5b503073ffffffffffffffffffffffffffffffffffffffff1631905090565b6000809054906101000a900473ffffffffffffffffffffffffffffffffffffffff1681565b60008060009054906101000a900473ffffffffffffffffffffffffffffffffffffffff1673ffffffffffffffffffffffffffffffffffffffff163373ffffffffffffffffffffffffffffffffffffffff161461096f576040517f08c379a00000000000000000000000000000000000000000000000000000000081526004018080602001828103825260138152602001807f596f757265206e6f7420746865206f776e65720000000000000000000000000081525060200191505060405180910390fd5b816000806101000a81548173ffffffffffffffffffffffffffffffffffffffff021916908373ffffffffffffffffffffffffffffffffffffffff1602179055506000809054906101000a900473ffffffffffffffffffffffffffffffffffffffff169050919050565b6000600160003373ffffffffffffffffffffffffffffffffffffffff1673ffffffffffffffffffffffffffffffffffffffff1681526020019081526020016000205411610a2457600080fd5b6000600160003373ffffffffffffffffffffffffffffffffffffffff1673ffffffffffffffffffffffffffffffffffffffff1681526020019081526020016000205490506000600160003373ffffffffffffffffffffffffffffffffffffffff1673ffffffffffffffffffffffffffffffffffffffff1681526020019081526020016000205490503373ffffffffffffffffffffffffffffffffffffffff166108fc839081150290604051600060405180830381858888f19350505050158015610af2573d6000803e3d6000fd5b507fc8f3917c6c1741edea03c36d42209e0e0fcf0735c663623ccb5a69fb554ec98a303384604051808473ffffffffffffffffffffffffffffffffffffffff1673ffffffffffffffffffffffffffffffffffffffff1681526020018373ffffffffffffffffffffffffffffffffffffffff1673ffffffffffffffffffffffffffffffffffffffff168152602001828152602001935050505060405180910390a181600160003373ffffffffffffffffffffffffffffffffffffffff1673ffffffffffffffffffffffffffffffffffffffff16815260200190815260200160002060008282540392505081905550818103600160003373ffffffffffffffffffffffffffffffffffffffff1673ffffffffffffffffffffffffffffffffffffffff1681526020019081526020016000205414610c2957fe5b5050565b60008060009054906101000a900473ffffffffffffffffffffffffffffffffffffffff1673ffffffffffffffffffffffffffffffffffffffff163373ffffffffffffffffffffffffffffffffffffffff1614610cf1576040517f08c379a00000000000000000000000000000000000000000000000000000000081526004018080602001828103825260138152602001807f596f757265206e6f7420746865206f776e65720000000000000000000000000081525060200191505060405180910390fd5b3073ffffffffffffffffffffffffffffffffffffffff163190509056fea265627a7a72315820a5616e07cb2189364fcdb370ac19402bd4ebde4c9032f9b9d86993931181143564736f6c634300050c0032",
  "source": "pragma solidity 0.5.12;\n\ncontract CoinFlip {\n\naddress public owner;\nmapping(address => uint) balance;\n\nevent DepositSent(address from, address to, uint amount);\nevent Results(address player, string _results);\n\nconstructor() public payable {\n    require (msg.value == 1 ether, \"deployment minimum not achieved\");\n    owner = msg.sender;\n    }\n\nmodifier onlyOwner {\n\n    require(msg.sender == owner, \"Youre not the owner\");\n     _;\n    }\n\nmodifier RequiredtoBet {\n\n    require(msg.value >= 0.1 ether, \"Minimum bet not placed\");\n     _;\n    }\n\nfunction Deposit() public payable onlyOwner returns (uint){\n\n    return address(this).balance;\n    }\n\nfunction getBalance() public view returns (uint) {\n\n    return address(this).balance;\n    }\n\nfunction getBetterBalance() public view returns (uint) {\n\n    return balance[msg.sender];\n    }\n\nfunction getContractAddress() public view returns(address){\n\n    return address(this);\n    }\n\nfunction changeOwner(address newOwner) public onlyOwner returns (address){\n\n    owner = newOwner;\n    return owner;\n    }\n\nfunction withdrawAll() public onlyOwner returns (uint){\n\n    msg.sender.transfer(address(this).balance);\n    return address(this).balance;\n    }\n\nfunction withdrawRewards() public {\n\n    require(balance[msg.sender] > 0);\n\n    uint _balance = balance[msg.sender];\n    uint previousSenderBalance = balance[msg.sender];\n\n    msg.sender.transfer(_balance);\n    emit DepositSent(address(this),msg.sender, _balance);\n\n    balance[msg.sender] -= _balance;\n\n    assert(balance[msg.sender] == previousSenderBalance - _balance);\n    }\n\nfunction placeBet(uint guess) public payable RequiredtoBet returns (bool){\n\n    uint _balance = 2 * msg.value;\n\n    require (address(this).balance >= _balance, \"Balance not sufficient\");\n\n    if (guess == block.timestamp%2){\n\n      balance[msg.sender] += _balance;\n      emit Results(msg.sender,\"You win!\");\n\n      return true;\n      }\n\n    else if(guess != block.timestamp%2 && balance[msg.sender] != 0){\n\n      balance[msg.sender] -= _balance;\n      emit Results(msg.sender,\"Sorry Try Again!\");\n\n      return false;\n      }\n\n    else\n\n      emit Results(msg.sender,\"Sorry Try Again!\");\n      return false;\n    }\n\n}\n",
  "sourcePath": "/Users/user/Documents/CoinFlip-dapp/contracts/CoinFlip.sol",
  "compiler": {
    "name": "solc",
    "version": "0.5.12+commit.7709ece9.Emscripten.clang"
  },
  "schemaVersion": "3.0.16",
  "updatedAt": "2021-02-04T05:34:52.618Z",
  "devdoc": {
    "methods": {}
  },
  "userdoc": {
    "methods": {}
  }
}