{
  "contractName": "CoinFlip",
  "abi": [
    {
      "inputs": [],
      "payable": true,
      "stateMutability": "payable",
      "type": "constructor"
    },
    {
      "anonymous": false,
      "inputs": [
        {
          "indexed": false,
          "internalType": "address",
          "name": "from",
          "type": "address"
        },
        {
          "indexed": false,
          "internalType": "address",
          "name": "to",
          "type": "address"
        },
        {
          "indexed": false,
          "internalType": "uint256",
          "name": "amount",
          "type": "uint256"
        }
      ],
      "name": "DepositSent",
      "type": "event"
    },
    {
      "anonymous": false,
      "inputs": [
        {
          "indexed": false,
          "internalType": "address",
          "name": "player",
          "type": "address"
        },
        {
          "indexed": false,
          "internalType": "string",
          "name": "description",
          "type": "string"
        }
      ],
      "name": "LogNewProvableQuery",
      "type": "event"
    },
    {
      "anonymous": false,
      "inputs": [
        {
          "indexed": false,
          "internalType": "address",
          "name": "player",
          "type": "address"
        },
        {
          "indexed": false,
          "internalType": "uint256",
          "name": "result",
          "type": "uint256"
        },
        {
          "indexed": false,
          "internalType": "string",
          "name": "_results",
          "type": "string"
        }
      ],
      "name": "Results",
      "type": "event"
    },
    {
      "anonymous": false,
      "inputs": [
        {
          "indexed": false,
          "internalType": "string",
          "name": "description",
          "type": "string"
        }
      ],
      "name": "UnclaimedGoods",
      "type": "event"
    },
    {
      "constant": false,
      "inputs": [],
      "name": "callitQuits",
      "outputs": [],
      "payable": false,
      "stateMutability": "nonpayable",
      "type": "function"
    },
    {
      "constant": true,
      "inputs": [],
      "name": "owner",
      "outputs": [
        {
          "internalType": "address",
          "name": "",
          "type": "address"
        }
      ],
      "payable": false,
      "stateMutability": "view",
      "type": "function"
    },
    {
      "constant": false,
      "inputs": [
        {
          "internalType": "uint256",
          "name": "guess",
          "type": "uint256"
        }
      ],
      "name": "placeBet",
      "outputs": [
        {
          "internalType": "bool",
          "name": "",
          "type": "bool"
        }
      ],
      "payable": true,
      "stateMutability": "payable",
      "type": "function"
    },
    {
      "constant": false,
      "inputs": [
        {
          "internalType": "bytes32",
          "name": "_queryId",
          "type": "bytes32"
        },
        {
          "internalType": "string",
          "name": "_result",
          "type": "string"
        },
        {
          "internalType": "bytes",
          "name": "_proof",
          "type": "bytes"
        }
      ],
      "name": "__callback",
      "outputs": [],
      "payable": false,
      "stateMutability": "nonpayable",
      "type": "function"
    },
    {
      "constant": false,
      "inputs": [
        {
          "internalType": "bytes32",
          "name": "_myid",
          "type": "bytes32"
        },
        {
          "internalType": "string",
          "name": "_result",
          "type": "string"
        }
      ],
      "name": "__callback",
      "outputs": [],
      "payable": false,
      "stateMutability": "nonpayable",
      "type": "function"
    },
    {
      "constant": false,
      "inputs": [],
      "name": "Deposit",
      "outputs": [
        {
          "internalType": "uint256",
          "name": "",
          "type": "uint256"
        }
      ],
      "payable": true,
      "stateMutability": "payable",
      "type": "function"
    },
    {
      "constant": false,
      "inputs": [],
      "name": "withdrawAll",
      "outputs": [],
      "payable": false,
      "stateMutability": "nonpayable",
      "type": "function"
    },
    {
      "constant": false,
      "inputs": [],
      "name": "withdrawRewards",
      "outputs": [],
      "payable": false,
      "stateMutability": "nonpayable",
      "type": "function"
    },
    {
      "constant": true,
      "inputs": [],
      "name": "getBalance",
      "outputs": [
        {
          "internalType": "uint256",
          "name": "",
          "type": "uint256"
        }
      ],
      "payable": false,
      "stateMutability": "view",
      "type": "function"
    },
    {
      "constant": true,
      "inputs": [],
      "name": "getBetterBalance",
      "outputs": [
        {
          "internalType": "uint256",
          "name": "",
          "type": "uint256"
        }
      ],
      "payable": false,
      "stateMutability": "view",
      "type": "function"
    },
    {
      "constant": true,
      "inputs": [],
      "name": "getContractAddress",
      "outputs": [
        {
          "internalType": "address",
          "name": "",
          "type": "address"
        }
      ],
      "payable": false,
      "stateMutability": "view",
      "type": "function"
    },
    {
      "constant": false,
      "inputs": [
        {
          "internalType": "address",
          "name": "newOwner",
          "type": "address"
        }
      ],
      "name": "changeOwner",
      "outputs": [
        {
          "internalType": "address",
          "name": "",
          "type": "address"
        }
      ],
      "payable": false,
      "stateMutability": "nonpayable",
      "type": "function"
    },
    {
      "constant": true,
      "inputs": [],
      "name": "checkUnclaimedFunds",
      "outputs": [
        {
          "internalType": "uint256",
          "name": "",
          "type": "uint256"
        }
      ],
      "payable": false,
      "stateMutability": "view",
      "type": "function"
    }
  ],
  "bytecode": "0x608060405233600560006101000a81548173ffffffffffffffffffffffffffffffffffffffff021916908373ffffffffffffffffffffffffffffffffffffffff16021790555067016345785d8a00003414620000c3576040517f08c379a000000000000000000000000000000000000000000000000000000000815260040180806020018281038252601f8152602001807f4465706c6f796d656e74206d696e696d756d206e6f742061636869657665640081525060200191505060405180910390fd5b33600660006101000a81548173ffffffffffffffffffffffffffffffffffffffff021916908373ffffffffffffffffffffffffffffffffffffffff16021790555062000119603060f81b6200011f60201b60201c565b62000b40565b600073ffffffffffffffffffffffffffffffffffffffff16600160009054906101000a900473ffffffffffffffffffffffffffffffffffffffff1673ffffffffffffffffffffffffffffffffffffffff161480620001af57506000620001ad600160009054906101000a900473ffffffffffffffffffffffffffffffffffffffff166200048260201b60201c565b145b15620001c957620001c760006200048d60201b60201c565b505b600160009054906101000a900473ffffffffffffffffffffffffffffffffffffffff1673ffffffffffffffffffffffffffffffffffffffff166338cc48316040518163ffffffff1660e01b8152600401602060405180830381600087803b1580156200023457600080fd5b505af115801562000249573d6000803e3d6000fd5b505050506040513d60208110156200026057600080fd5b810190808051906020019092919050505073ffffffffffffffffffffffffffffffffffffffff166000809054906101000a900473ffffffffffffffffffffffffffffffffffffffff1673ffffffffffffffffffffffffffffffffffffffff1614620003ad57600160009054906101000a900473ffffffffffffffffffffffffffffffffffffffff1673ffffffffffffffffffffffffffffffffffffffff166338cc48316040518163ffffffff1660e01b8152600401602060405180830381600087803b1580156200033057600080fd5b505af115801562000345573d6000803e3d6000fd5b505050506040513d60208110156200035c57600080fd5b81019080805190602001909291905050506000806101000a81548173ffffffffffffffffffffffffffffffffffffffff021916908373ffffffffffffffffffffffffffffffffffffffff1602179055505b6000809054906101000a900473ffffffffffffffffffffffffffffffffffffffff1673ffffffffffffffffffffffffffffffffffffffff1663688dcfd7826040518263ffffffff1660e01b815260040180827effffffffffffffffffffffffffffffffffffffffffffffffffffffffffffff19167effffffffffffffffffffffffffffffffffffffffffffffffffffffffffffff19168152602001915050600060405180830381600087803b1580156200046657600080fd5b505af11580156200047b573d6000803e3d6000fd5b5050505050565b6000813b9050919050565b60006200049f620004a660201b60201c565b9050919050565b600080620004ce731d3b2638a7cc9f2cb3d298a3da7a90b67e5506ed6200048260201b60201c565b11156200057a57731d3b2638a7cc9f2cb3d298a3da7a90b67e5506ed600160006101000a81548173ffffffffffffffffffffffffffffffffffffffff021916908373ffffffffffffffffffffffffffffffffffffffff160217905550620005706040518060400160405280600b81526020017f6574685f6d61696e6e657400000000000000000000000000000000000000000081525062000a7560201b60201c565b6001905062000a72565b6000620005a173c03a2615d5efaf5f49f60b7bb6583eaec212fdf16200048260201b60201c565b11156200064d5773c03a2615d5efaf5f49f60b7bb6583eaec212fdf1600160006101000a81548173ffffffffffffffffffffffffffffffffffffffff021916908373ffffffffffffffffffffffffffffffffffffffff160217905550620006436040518060400160405280600c81526020017f6574685f726f707374656e33000000000000000000000000000000000000000081525062000a7560201b60201c565b6001905062000a72565b60006200067473b7a07bcf2ba2f2703b24c0691b5278999c59ac7e6200048260201b60201c565b1115620007205773b7a07bcf2ba2f2703b24c0691b5278999c59ac7e600160006101000a81548173ffffffffffffffffffffffffffffffffffffffff021916908373ffffffffffffffffffffffffffffffffffffffff160217905550620007166040518060400160405280600981526020017f6574685f6b6f76616e000000000000000000000000000000000000000000000081525062000a7560201b60201c565b6001905062000a72565b60006200074773146500cfd35b22e4a392fe0adc06de1a1368ed486200048260201b60201c565b1115620007f35773146500cfd35b22e4a392fe0adc06de1a1368ed48600160006101000a81548173ffffffffffffffffffffffffffffffffffffffff021916908373ffffffffffffffffffffffffffffffffffffffff160217905550620007e96040518060400160405280600b81526020017f6574685f72696e6b65627900000000000000000000000000000000000000000081525062000a7560201b60201c565b6001905062000a72565b60006200081a73a2998efd205fb9d4b4963afb70778d6354ad3a416200048260201b60201c565b1115620008c65773a2998efd205fb9d4b4963afb70778d6354ad3a41600160006101000a81548173ffffffffffffffffffffffffffffffffffffffff021916908373ffffffffffffffffffffffffffffffffffffffff160217905550620008bc6040518060400160405280600a81526020017f6574685f676f65726c690000000000000000000000000000000000000000000081525062000a7560201b60201c565b6001905062000a72565b6000620008ed736f485c8bf6fc43ea212e93bbf8ce046c7f1cb4756200048260201b60201c565b11156200095357736f485c8bf6fc43ea212e93bbf8ce046c7f1cb475600160006101000a81548173ffffffffffffffffffffffffffffffffffffffff021916908373ffffffffffffffffffffffffffffffffffffffff1602179055506001905062000a72565b60006200097a7320e12a1f859b3feae5fb2a0a32c18f5a65555bbf6200048260201b60201c565b1115620009e0577320e12a1f859b3feae5fb2a0a32c18f5a65555bbf600160006101000a81548173ffffffffffffffffffffffffffffffffffffffff021916908373ffffffffffffffffffffffffffffffffffffffff1602179055506001905062000a72565b600062000a077351efaf4c8b3c9afbd5ab9f4bbc82784ab6ef8faa6200048260201b60201c565b111562000a6d577351efaf4c8b3c9afbd5ab9f4bbc82784ab6ef8faa600160006101000a81548173ffffffffffffffffffffffffffffffffffffffff021916908373ffffffffffffffffffffffffffffffffffffffff1602179055506001905062000a72565b600090505b90565b806002908051906020019062000a8d92919062000a91565b5050565b828054600181600116156101000203166002900490600052602060002090601f016020900481019282601f1062000ad457805160ff191683800117855562000b05565b8280016001018555821562000b05579182015b8281111562000b0457825182559160200191906001019062000ae7565b5b50905062000b14919062000b18565b5090565b62000b3d91905b8082111562000b3957600081600090555060010162000b1f565b5090565b90565b614e878062000b506000396000f3fe6080604052600436106100c25760003560e01c806332a2c5d01161007f5780638da5cb5b116100595780638da5cb5b1461044e578063a6f9dae1146104a5578063c7b8981c14610536578063ed21248c1461054d576100c2565b806332a2c5d01461027757806338bbfa50146102ce578063853828b614610437576100c2565b806310fe7c48146100c757806312065fe01461010d5780631218ede914610138578063179f54771461016357806322a2255a1461017a57806327dc297e146101a5575b600080fd5b6100f3600480360360208110156100dd57600080fd5b810190808035906020019092919050505061056b565b604051808215151515815260200191505060405180910390f35b34801561011957600080fd5b5061012261091f565b6040518082815260200191505060405180910390f35b34801561014457600080fd5b5061014d61093e565b6040518082815260200191505060405180910390f35b34801561016f57600080fd5b50610178610988565b005b34801561018657600080fd5b5061018f610a64565b6040518082815260200191505060405180910390f35b3480156101b157600080fd5b50610275600480360360408110156101c857600080fd5b8101908080359060200190929190803590602001906401000000008111156101ef57600080fd5b82018360208201111561020157600080fd5b8035906020019184600183028401116401000000008311171561022357600080fd5b91908080601f016020809104026020016040519081016040528093929190818152602001838380828437600081840152601f19601f820116905080830192505050505050509192919290505050610a6e565b005b34801561028357600080fd5b5061028c610ab1565b604051808273ffffffffffffffffffffffffffffffffffffffff1673ffffffffffffffffffffffffffffffffffffffff16815260200191505060405180910390f35b3480156102da57600080fd5b50610435600480360360608110156102f157600080fd5b81019080803590602001909291908035906020019064010000000081111561031857600080fd5b82018360208201111561032a57600080fd5b8035906020019184600183028401116401000000008311171561034c57600080fd5b91908080601f016020809104026020016040519081016040528093929190818152602001838380828437600081840152601f19601f820116905080830192505050505050509192919290803590602001906401000000008111156103af57600080fd5b8201836020820111156103c157600080fd5b803590602001918460018302840111640100000000831117156103e357600080fd5b91908080601f016020809104026020016040519081016040528093929190818152602001838380828437600081840152601f19601f820116905080830192505050505050509192919290505050610ab9565b005b34801561044357600080fd5b5061044c610ba2565b005b34801561045a57600080fd5b50610463610d20565b604051808273ffffffffffffffffffffffffffffffffffffffff1673ffffffffffffffffffffffffffffffffffffffff16815260200191505060405180910390f35b3480156104b157600080fd5b506104f4600480360360208110156104c857600080fd5b81019080803573ffffffffffffffffffffffffffffffffffffffff169060200190929190505050610d46565b604051808273ffffffffffffffffffffffffffffffffffffffff1673ffffffffffffffffffffffffffffffffffffffff16815260200191505060405180910390f35b34801561054257600080fd5b5061054b610e76565b005b610555611197565b6040518082815260200191505060405180910390f35b6000662386f26fc100003410156105ea576040517f08c379a00000000000000000000000000000000000000000000000000000000081526004018080602001828103825260168152602001807f4d696e696d756d20626574206e6f7420706c616365640000000000000000000081525060200191505060405180910390fd5b600061060060023461127990919063ffffffff16565b9050803073ffffffffffffffffffffffffffffffffffffffff1631101561068f576040517f08c379a00000000000000000000000000000000000000000000000000000000081526004018080602001828103825260168152602001807f42616c616e6365206e6f742073756666696369656e740000000000000000000081525060200191505060405180910390fd5b60001515600960003373ffffffffffffffffffffffffffffffffffffffff1673ffffffffffffffffffffffffffffffffffffffff16815260200190815260200160002060020160009054906101000a900460ff16151514610758576040517f08c379a00000000000000000000000000000000000000000000000000000000081526004018080602001828103825260118152602001807f43757272656e746c7920696e2067616d6500000000000000000000000000000081525060200191505060405180910390fd5b33600960003373ffffffffffffffffffffffffffffffffffffffff1673ffffffffffffffffffffffffffffffffffffffff16815260200190815260200160002060000160006101000a81548173ffffffffffffffffffffffffffffffffffffffff021916908373ffffffffffffffffffffffffffffffffffffffff16021790555061082961081a6040518060400160405280600681526020017f72616e646f6d00000000000000000000000000000000000000000000000000008152506112ff565b3461169090919063ffffffff16565b600960003373ffffffffffffffffffffffffffffffffffffffff1673ffffffffffffffffffffffffffffffffffffffff168152602001908152602001600020600101819055506001600960003373ffffffffffffffffffffffffffffffffffffffff1673ffffffffffffffffffffffffffffffffffffffff16815260200190815260200160002060020160006101000a81548160ff02191690831515021790555082600960003373ffffffffffffffffffffffffffffffffffffffff1673ffffffffffffffffffffffffffffffffffffffff168152602001908152602001600020600401819055506109196116da565b50919050565b60003073ffffffffffffffffffffffffffffffffffffffff1631905090565b6000600960003373ffffffffffffffffffffffffffffffffffffffff1673ffffffffffffffffffffffffffffffffffffffff16815260200190815260200160002060030154905090565b600660009054906101000a900473ffffffffffffffffffffffffffffffffffffffff1673ffffffffffffffffffffffffffffffffffffffff163373ffffffffffffffffffffffffffffffffffffffff1614610a4b576040517f08c379a00000000000000000000000000000000000000000000000000000000081526004018080602001828103825260138152602001807f596f757265206e6f7420746865206f776e65720000000000000000000000000081525060200191505060405180910390fd5b3373ffffffffffffffffffffffffffffffffffffffff16ff5b6000600854905090565b610aad828260006040519080825280601f01601f191660200182016040528015610aa75781602001600182028038833980820191505090505b50610ab9565b5050565b600030905090565b610ac16117eb565b73ffffffffffffffffffffffffffffffffffffffff163373ffffffffffffffffffffffffffffffffffffffff1614610af857600080fd5b6000610b05848484611b08565b60ff161415610b9d5760006002836040516020018082805190602001908083835b60208310610b495780518252602082019150602081019050602083039250610b26565b6001836020036101000a0380198251168184511680821785525050505050509050019150506040516020818303038152906040528051906020012060001c81610b8e57fe5b069050610b9b8185611c38565b505b505050565b600660009054906101000a900473ffffffffffffffffffffffffffffffffffffffff1673ffffffffffffffffffffffffffffffffffffffff163373ffffffffffffffffffffffffffffffffffffffff1614610c65576040517f08c379a00000000000000000000000000000000000000000000000000000000081526004018080602001828103825260138152602001807f596f757265206e6f7420746865206f776e65720000000000000000000000000081525060200191505060405180910390fd5b3373ffffffffffffffffffffffffffffffffffffffff166108fc6008543073ffffffffffffffffffffffffffffffffffffffff1631039081150290604051600060405180830381858888f19350505050158015610cc6573d6000803e3d6000fd5b5060006008541115610d1e577fc10245dc68e46548b520c5f6dc989b3d69a7280c3062fd9372556a7e4d57e9de60405180806020018281038252602b815260200180614e28602b913960400191505060405180910390a15b565b600660009054906101000a900473ffffffffffffffffffffffffffffffffffffffff1681565b6000600660009054906101000a900473ffffffffffffffffffffffffffffffffffffffff1673ffffffffffffffffffffffffffffffffffffffff163373ffffffffffffffffffffffffffffffffffffffff1614610e0b576040517f08c379a00000000000000000000000000000000000000000000000000000000081526004018080602001828103825260138152602001807f596f757265206e6f7420746865206f776e65720000000000000000000000000081525060200191505060405180910390fd5b81600660006101000a81548173ffffffffffffffffffffffffffffffffffffffff021916908373ffffffffffffffffffffffffffffffffffffffff160217905550600660009054906101000a900473ffffffffffffffffffffffffffffffffffffffff169050919050565b6000600960003373ffffffffffffffffffffffffffffffffffffffff1673ffffffffffffffffffffffffffffffffffffffff1681526020019081526020016000206003015411610f2e576040517f08c379a00000000000000000000000000000000000000000000000000000000081526004018080602001828103825260128152602001807f4e6f20617661696c61626c652066756e6473000000000000000000000000000081525060200191505060405180910390fd5b6000600960003373ffffffffffffffffffffffffffffffffffffffff1673ffffffffffffffffffffffffffffffffffffffff1681526020019081526020016000206003015490503373ffffffffffffffffffffffffffffffffffffffff166108fc829081150290604051600060405180830381858888f19350505050158015610fbb573d6000803e3d6000fd5b50600960003373ffffffffffffffffffffffffffffffffffffffff1673ffffffffffffffffffffffffffffffffffffffff16815260200190815260200160002060030154600860008282540392505081905550600960003373ffffffffffffffffffffffffffffffffffffffff1673ffffffffffffffffffffffffffffffffffffffff16815260200190815260200160002060030154600760008282540392505081905550600960003373ffffffffffffffffffffffffffffffffffffffff1673ffffffffffffffffffffffffffffffffffffffff168152602001908152602001600020600080820160006101000a81549073ffffffffffffffffffffffffffffffffffffffff021916905560018201600090556002820160006101000a81549060ff02191690556003820160009055600482016000905550507fc8f3917c6c1741edea03c36d42209e0e0fcf0735c663623ccb5a69fb554ec98a303383604051808473ffffffffffffffffffffffffffffffffffffffff1673ffffffffffffffffffffffffffffffffffffffff1681526020018373ffffffffffffffffffffffffffffffffffffffff1673ffffffffffffffffffffffffffffffffffffffff168152602001828152602001935050505060405180910390a150565b6000600660009054906101000a900473ffffffffffffffffffffffffffffffffffffffff1673ffffffffffffffffffffffffffffffffffffffff163373ffffffffffffffffffffffffffffffffffffffff161461125c576040517f08c379a00000000000000000000000000000000000000000000000000000000081526004018080602001828103825260138152602001807f596f757265206e6f7420746865206f776e65720000000000000000000000000081525060200191505060405180910390fd5b3073ffffffffffffffffffffffffffffffffffffffff1631905090565b60008083141561128c57600090506112f9565b600082840290508284828161129d57fe5b04146112f4576040517f08c379a0000000000000000000000000000000000000000000000000000000008152600401808060200182810382526021815260200180614dc76021913960400191505060405180910390fd5b809150505b92915050565b60008073ffffffffffffffffffffffffffffffffffffffff16600160009054906101000a900473ffffffffffffffffffffffffffffffffffffffff1673ffffffffffffffffffffffffffffffffffffffff16148061138757506000611385600160009054906101000a900473ffffffffffffffffffffffffffffffffffffffff1661218c565b145b15611398576113966000612197565b505b600160009054906101000a900473ffffffffffffffffffffffffffffffffffffffff1673ffffffffffffffffffffffffffffffffffffffff166338cc48316040518163ffffffff1660e01b8152600401602060405180830381600087803b15801561140257600080fd5b505af1158015611416573d6000803e3d6000fd5b505050506040513d602081101561142c57600080fd5b810190808051906020019092919050505073ffffffffffffffffffffffffffffffffffffffff166000809054906101000a900473ffffffffffffffffffffffffffffffffffffffff1673ffffffffffffffffffffffffffffffffffffffff161461157557600160009054906101000a900473ffffffffffffffffffffffffffffffffffffffff1673ffffffffffffffffffffffffffffffffffffffff166338cc48316040518163ffffffff1660e01b8152600401602060405180830381600087803b1580156114fa57600080fd5b505af115801561150e573d6000803e3d6000fd5b505050506040513d602081101561152457600080fd5b81019080805190602001909291905050506000806101000a81548173ffffffffffffffffffffffffffffffffffffffff021916908373ffffffffffffffffffffffffffffffffffffffff1602179055505b6000809054906101000a900473ffffffffffffffffffffffffffffffffffffffff1673ffffffffffffffffffffffffffffffffffffffff1663524f3889836040518263ffffffff1660e01b81526004018080602001828103825283818151815260200191508051906020019080838360005b838110156116025780820151818401526020810190506115e7565b50505050905090810190601f16801561162f5780820380516001836020036101000a031916815260200191505b5092505050602060405180830381600087803b15801561164e57600080fd5b505af1158015611662573d6000803e3d6000fd5b505050506040513d602081101561167857600080fd5b81019080805190602001909291905050509050919050565b60006116d283836040518060400160405280601e81526020017f536166654d6174683a207375627472616374696f6e206f766572666c6f7700008152506121a8565b905092915050565b6000809050600062030d40905060006116f583600184612268565b905080600a60008381526020019081526020016000206001018190555033600a600083815260200190815260200160002060000160006101000a81548173ffffffffffffffffffffffffffffffffffffffff021916908373ffffffffffffffffffffffffffffffffffffffff1602179055507fa64dbc08b0836b2de5388c913141a3b62577aa798d99b83777646718907ba2f933604051808273ffffffffffffffffffffffffffffffffffffffff1673ffffffffffffffffffffffffffffffffffffffff168152602001806020018281038252602a815260200180614d9d602a91396040019250505060405180910390a1505050565b60008073ffffffffffffffffffffffffffffffffffffffff16600160009054906101000a900473ffffffffffffffffffffffffffffffffffffffff1673ffffffffffffffffffffffffffffffffffffffff16148061187357506000611871600160009054906101000a900473ffffffffffffffffffffffffffffffffffffffff1661218c565b145b15611884576118826000612197565b505b600160009054906101000a900473ffffffffffffffffffffffffffffffffffffffff1673ffffffffffffffffffffffffffffffffffffffff166338cc48316040518163ffffffff1660e01b8152600401602060405180830381600087803b1580156118ee57600080fd5b505af1158015611902573d6000803e3d6000fd5b505050506040513d602081101561191857600080fd5b810190808051906020019092919050505073ffffffffffffffffffffffffffffffffffffffff166000809054906101000a900473ffffffffffffffffffffffffffffffffffffffff1673ffffffffffffffffffffffffffffffffffffffff1614611a6157600160009054906101000a900473ffffffffffffffffffffffffffffffffffffffff1673ffffffffffffffffffffffffffffffffffffffff166338cc48316040518163ffffffff1660e01b8152600401602060405180830381600087803b1580156119e657600080fd5b505af11580156119fa573d6000803e3d6000fd5b505050506040513d6020811015611a1057600080fd5b81019080805190602001909291905050506000806101000a81548173ffffffffffffffffffffffffffffffffffffffff021916908373ffffffffffffffffffffffffffffffffffffffff1602179055505b6000809054906101000a900473ffffffffffffffffffffffffffffffffffffffff1673ffffffffffffffffffffffffffffffffffffffff1663c281d19e6040518163ffffffff1660e01b815260040160206040518083038186803b158015611ac857600080fd5b505afa158015611adc573d6000803e3d6000fd5b505050506040513d6020811015611af257600080fd5b8101908080519060200190929190505050905090565b60007f4c0000000000000000000000000000000000000000000000000000000000000082600081518110611b3857fe5b602001015160f81c60f81b7effffffffffffffffffffffffffffffffffffffffffffffffffffffffffffff1916141580611bcb57507f500000000000000000000000000000000000000000000000000000000000000082600181518110611b9b57fe5b602001015160f81c60f81b7effffffffffffffffffffffffffffffffffffffffffffffffffffffffffffff191614155b80611bf75750600160ff1682600281518110611be357fe5b602001015160f81c60f81b60f81c60ff1614155b15611c055760019050611c31565b6000611c1a838686611c15612803565b6128a5565b905080611c2b576002915050611c31565b60009150505b9392505050565b611c40614c83565b600a60008381526020019081526020016000206040518060400160405290816000820160009054906101000a900473ffffffffffffffffffffffffffffffffffffffff1673ffffffffffffffffffffffffffffffffffffffff1673ffffffffffffffffffffffffffffffffffffffff168152602001600182015481525050905060008160000151905083600960008373ffffffffffffffffffffffffffffffffffffffff1673ffffffffffffffffffffffffffffffffffffffff168152602001908152602001600020600401541415611ff957611dbd611d6c6002600960008573ffffffffffffffffffffffffffffffffffffffff1673ffffffffffffffffffffffffffffffffffffffff1681526020019081526020016000206001015461127990919063ffffffff16565b600960008473ffffffffffffffffffffffffffffffffffffffff1673ffffffffffffffffffffffffffffffffffffffff16815260200190815260200160002060030154612f5090919063ffffffff16565b600960008373ffffffffffffffffffffffffffffffffffffffff1673ffffffffffffffffffffffffffffffffffffffff16815260200190815260200160002060030181905550611e596002600960008473ffffffffffffffffffffffffffffffffffffffff1673ffffffffffffffffffffffffffffffffffffffff1681526020019081526020016000206001015461127990919063ffffffff16565b6008600082825401925050819055507fe1c477983938361424a5e2261bb6ab0a3f3cb1aae6c9b01055d555b9c80850008185604051808373ffffffffffffffffffffffffffffffffffffffff1673ffffffffffffffffffffffffffffffffffffffff16815260200182815260200180602001828103825260088152602001807f596f752077696e21000000000000000000000000000000000000000000000000815250602001935050505060405180910390a1600a6000848152602001908152602001600020600080820160006101000a81549073ffffffffffffffffffffffffffffffffffffffff0219169055600182016000905550506000600960008373ffffffffffffffffffffffffffffffffffffffff1673ffffffffffffffffffffffffffffffffffffffff168152602001908152602001600020600101819055506000600960008373ffffffffffffffffffffffffffffffffffffffff1673ffffffffffffffffffffffffffffffffffffffff16815260200190815260200160002060020160006101000a81548160ff021916908315150217905550612186565b7fe1c477983938361424a5e2261bb6ab0a3f3cb1aae6c9b01055d555b9c80850008185604051808373ffffffffffffffffffffffffffffffffffffffff1673ffffffffffffffffffffffffffffffffffffffff16815260200182815260200180602001828103825260108152602001807f536f7272792054727920416761696e2100000000000000000000000000000000815250602001935050505060405180910390a1600a6000848152602001908152602001600020600080820160006101000a81549073ffffffffffffffffffffffffffffffffffffffff0219169055600182016000905550506000600960008373ffffffffffffffffffffffffffffffffffffffff1673ffffffffffffffffffffffffffffffffffffffff168152602001908152602001600020600101819055506000600960008373ffffffffffffffffffffffffffffffffffffffff1673ffffffffffffffffffffffffffffffffffffffff16815260200190815260200160002060020160006101000a81548160ff0219169083151502179055505b50505050565b6000813b9050919050565b60006121a1612fd8565b9050919050565b6000838311158290612255576040517f08c379a00000000000000000000000000000000000000000000000000000000081526004018080602001828103825283818151815260200191508051906020019080838360005b8381101561221a5780820151818401526020810190506121ff565b50505050905090810190601f1680156122475780820380516001836020036101000a031916815260200191505b509250505060405180910390fd5b5060008385039050809150509392505050565b6000808311801561227a575060208311155b61228357600080fd5b600a84029350606060016040519080825280601f01601f1916602001820160405280156122bf5781602001600182028038833980820191505090505b5090508360f81b816000815181106122d357fe5b60200101907effffffffffffffffffffffffffffffffffffffffffffffffffffffffffffff1916908160001a905350606060206040519080825280601f01601f1916602001820160405280156123385781602001600182028038833980820191505090505b509050606060206040519080825280601f01601f1916602001820160405280156123715781602001600182028038833980820191505090505b509050600061237e61352f565b905060208352424118600143034018602084015260208252806020830152606060206040519080825280601f01601f1916602001820160405280156123d25781602001600182028038833980820191505090505b509050886020820152606060086040519080825280601f01601f1916602001820160405280156124115781602001600182028038833980820191505090505b509050612424826018600884600061384c565b5061242d614cb6565b604051806080016040528087815260200188815260200186815260200184815250905060006124926040518060400160405280600681526020017f72616e646f6d0000000000000000000000000000000000000000000000000000815250838c6138ab565b9050606060086040519080825280601f01601f1916602001820160405280156124ca5781602001600182028038833980820191505090505b50905060208401517f0100000000000000000000000000000000000000000000000000000000000000810460278301537e01000000000000000000000000000000000000000000000000000000000000810460268301537d010000000000000000000000000000000000000000000000000000000000810460258301537c0100000000000000000000000000000000000000000000000000000000810460248301537b01000000000000000000000000000000000000000000000000000000810460238301537a0100000000000000000000000000000000000000000000000000008104602283015379010000000000000000000000000000000000000000000000000081046021830153780100000000000000000000000000000000000000000000000081046020830153506127f082828560016004811061260957fe5b602002015160028760006004811061261d57fe5b60200201516040518082805190602001908083835b602083106126555780518252602082019150602081019050602083039250612632565b6001836020036101000a038019825116818451168082178552505050505050905001915050602060405180830381855afa158015612697573d6000803e3d6000fd5b5050506040513d60208110156126ac57600080fd5b8101908080519060200190929190505050876002600481106126ca57fe5b60200201516040516020018085805190602001908083835b6020831061270557805182526020820191506020810190506020830392506126e2565b6001836020036101000a03801982511681845116808217855250505050505090500184805190602001908083835b602083106127565780518252602082019150602081019050602083039250612733565b6001836020036101000a03801982511681845116808217855250505050505090500183815260200182805190602001908083835b602083106127ad578051825260208201915060208101905060208303925061278a565b6001836020036101000a03801982511681845116808217855250505050505090500194505050505060405160208183030381529060405280519060200120613c18565b8199505050505050505050509392505050565b606060028054600181600116156101000203166002900480601f01602080910402602001604051908101604052809291908181526020018280546001816001161561010002031660029004801561289b5780601f106128705761010080835404028352916020019161289b565b820191906000526020600020905b81548152906001019060200180831161287e57829003601f168201915b5050505050905090565b60008060206002876045815181106128b957fe5b602001015160f81c60f81b60f81c60ff1601604401019050606060206040519080825280601f01601f1916602001820160405280156129075781602001600182028038833980820191505090505b5090506129198783602084600061384c565b50600284876040516020018083805190602001908083835b602083106129545780518252602082019150602081019050602083039250612931565b6001836020036101000a038019825116818451168082178552505050505050905001828152602001925050506040516020818303038152906040526040518082805190602001908083835b602083106129c2578051825260208201915060208101905060208303925061299f565b6001836020036101000a038019825116818451168082178552505050505050905001915050602060405180830381855afa158015612a04573d6000803e3d6000fd5b5050506040513d6020811015612a1957600080fd5b81019080805190602001909291905050506040516020018082815260200191505060405160208183030381529060405280519060200120818051906020012014612a6857600092505050612f48565b60606002886001604986010181518110612a7e57fe5b602001015160f81c60f81b60f81c60ff16016040519080825280601f01601f191660200182016040528015612ac25781602001600182028038833980820191505090505b509050612ad78860498501835184600061384c565b50612ba26002826040518082805190602001908083835b60208310612b115780518252602082019150602081019050602083039250612aee565b6001836020036101000a038019825116818451168082178552505050505050905001915050602060405180830381855afa158015612b53573d6000803e3d6000fd5b5050506040513d6020811015612b6857600080fd5b8101908080519060200190929190505050878a6008602088010181518110612b8c57fe5b602001015160f81c60f81b60f81c60ff16613c34565b612bb25760009350505050612f48565b606060296040519080825280601f01601f191660200182016040528015612be85781602001600182028038833980820191505090505b509050612bfd8960208601602984600061384c565b506060604080519080825280601f01601f191660200182016040528015612c335781602001600182028038833980820191505090505b5090506000604184516029602089010101019050612c598b60408303604085600061384c565b5060006002836040518082805190602001908083835b60208310612c925780518252602082019150602081019050602083039250612c6f565b6001836020036101000a038019825116818451168082178552505050505050905001915050602060405180830381855afa158015612cd4573d6000803e3d6000fd5b5050506040513d6020811015612ce957600080fd5b8101908080519060200190929190505050905083816040516020018083805190602001908083835b60208310612d345780518252602082019150602081019050602083039250612d11565b6001836020036101000a0380198251168184511680821785525050505050509050018281526020019250505060405160208183030381529060405280519060200120600360008d8152602001908152602001600020541415612dac57600360008c815260200190815260200160002060009055612dbc565b6000975050505050505050612f48565b606060496040519080825280601f01601f191660200182016040528015612df25781602001600182028038833980820191505090505b509050612e048d89604984600061384c565b50612ead6002826040518082805190602001908083835b60208310612e3e5780518252602082019150602081019050602083039250612e1b565b6001836020036101000a038019825116818451168082178552505050505050905001915050602060405180830381855afa158015612e80573d6000803e3d6000fd5b5050506040513d6020811015612e9557600080fd5b81019080805190602001909291905050508786613ce4565b612ec257600098505050505050505050612f48565b6004600083815260200190815260200160002060009054906101000a900460ff16612f1c57612ef18d84613ea2565b6004600084815260200190815260200160002060006101000a81548160ff0219169083151502179055505b6004600083815260200190815260200160002060009054906101000a900460ff16985050505050505050505b949350505050565b600080828401905083811015612fce576040517f08c379a000000000000000000000000000000000000000000000000000000000815260040180806020018281038252601b8152602001807f536166654d6174683a206164646974696f6e206f766572666c6f77000000000081525060200191505060405180910390fd5b8091505092915050565b600080612ff8731d3b2638a7cc9f2cb3d298a3da7a90b67e5506ed61218c565b111561309a57731d3b2638a7cc9f2cb3d298a3da7a90b67e5506ed600160006101000a81548173ffffffffffffffffffffffffffffffffffffffff021916908373ffffffffffffffffffffffffffffffffffffffff1602179055506130916040518060400160405280600b81526020017f6574685f6d61696e6e65740000000000000000000000000000000000000000008152506142ba565b6001905061352c565b60006130b973c03a2615d5efaf5f49f60b7bb6583eaec212fdf161218c565b111561315b5773c03a2615d5efaf5f49f60b7bb6583eaec212fdf1600160006101000a81548173ffffffffffffffffffffffffffffffffffffffff021916908373ffffffffffffffffffffffffffffffffffffffff1602179055506131526040518060400160405280600c81526020017f6574685f726f707374656e3300000000000000000000000000000000000000008152506142ba565b6001905061352c565b600061317a73b7a07bcf2ba2f2703b24c0691b5278999c59ac7e61218c565b111561321c5773b7a07bcf2ba2f2703b24c0691b5278999c59ac7e600160006101000a81548173ffffffffffffffffffffffffffffffffffffffff021916908373ffffffffffffffffffffffffffffffffffffffff1602179055506132136040518060400160405280600981526020017f6574685f6b6f76616e00000000000000000000000000000000000000000000008152506142ba565b6001905061352c565b600061323b73146500cfd35b22e4a392fe0adc06de1a1368ed4861218c565b11156132dd5773146500cfd35b22e4a392fe0adc06de1a1368ed48600160006101000a81548173ffffffffffffffffffffffffffffffffffffffff021916908373ffffffffffffffffffffffffffffffffffffffff1602179055506132d46040518060400160405280600b81526020017f6574685f72696e6b6562790000000000000000000000000000000000000000008152506142ba565b6001905061352c565b60006132fc73a2998efd205fb9d4b4963afb70778d6354ad3a4161218c565b111561339e5773a2998efd205fb9d4b4963afb70778d6354ad3a41600160006101000a81548173ffffffffffffffffffffffffffffffffffffffff021916908373ffffffffffffffffffffffffffffffffffffffff1602179055506133956040518060400160405280600a81526020017f6574685f676f65726c69000000000000000000000000000000000000000000008152506142ba565b6001905061352c565b60006133bd736f485c8bf6fc43ea212e93bbf8ce046c7f1cb47561218c565b111561342157736f485c8bf6fc43ea212e93bbf8ce046c7f1cb475600160006101000a81548173ffffffffffffffffffffffffffffffffffffffff021916908373ffffffffffffffffffffffffffffffffffffffff1602179055506001905061352c565b60006134407320e12a1f859b3feae5fb2a0a32c18f5a65555bbf61218c565b11156134a4577320e12a1f859b3feae5fb2a0a32c18f5a65555bbf600160006101000a81548173ffffffffffffffffffffffffffffffffffffffff021916908373ffffffffffffffffffffffffffffffffffffffff1602179055506001905061352c565b60006134c37351efaf4c8b3c9afbd5ab9f4bbc82784ab6ef8faa61218c565b1115613527577351efaf4c8b3c9afbd5ab9f4bbc82784ab6ef8faa600160006101000a81548173ffffffffffffffffffffffffffffffffffffffff021916908373ffffffffffffffffffffffffffffffffffffffff1602179055506001905061352c565b600090505b90565b60008073ffffffffffffffffffffffffffffffffffffffff16600160009054906101000a900473ffffffffffffffffffffffffffffffffffffffff1673ffffffffffffffffffffffffffffffffffffffff1614806135b7575060006135b5600160009054906101000a900473ffffffffffffffffffffffffffffffffffffffff1661218c565b145b156135c8576135c66000612197565b505b600160009054906101000a900473ffffffffffffffffffffffffffffffffffffffff1673ffffffffffffffffffffffffffffffffffffffff166338cc48316040518163ffffffff1660e01b8152600401602060405180830381600087803b15801561363257600080fd5b505af1158015613646573d6000803e3d6000fd5b505050506040513d602081101561365c57600080fd5b810190808051906020019092919050505073ffffffffffffffffffffffffffffffffffffffff166000809054906101000a900473ffffffffffffffffffffffffffffffffffffffff1673ffffffffffffffffffffffffffffffffffffffff16146137a557600160009054906101000a900473ffffffffffffffffffffffffffffffffffffffff1673ffffffffffffffffffffffffffffffffffffffff166338cc48316040518163ffffffff1660e01b8152600401602060405180830381600087803b15801561372a57600080fd5b505af115801561373e573d6000803e3d6000fd5b505050506040513d602081101561375457600080fd5b81019080805190602001909291905050506000806101000a81548173ffffffffffffffffffffffffffffffffffffffff021916908373ffffffffffffffffffffffffffffffffffffffff1602179055505b6000809054906101000a900473ffffffffffffffffffffffffffffffffffffffff1673ffffffffffffffffffffffffffffffffffffffff1663abaa5f3e6040518163ffffffff1660e01b815260040160206040518083038186803b15801561380c57600080fd5b505afa158015613820573d6000803e3d6000fd5b505050506040513d602081101561383657600080fd5b8101908080519060200190929190505050905090565b606060008285019050808451101561386357600080fd5b600086602001905060008460200190505b86886020010182101561389c5781890151808288015250602082019150602081019050613874565b85935050505095945050505050565b60008073ffffffffffffffffffffffffffffffffffffffff16600160009054906101000a900473ffffffffffffffffffffffffffffffffffffffff1673ffffffffffffffffffffffffffffffffffffffff16148061393357506000613931600160009054906101000a900473ffffffffffffffffffffffffffffffffffffffff1661218c565b145b15613944576139426000612197565b505b600160009054906101000a900473ffffffffffffffffffffffffffffffffffffffff1673ffffffffffffffffffffffffffffffffffffffff166338cc48316040518163ffffffff1660e01b8152600401602060405180830381600087803b1580156139ae57600080fd5b505af11580156139c2573d6000803e3d6000fd5b505050506040513d60208110156139d857600080fd5b810190808051906020019092919050505073ffffffffffffffffffffffffffffffffffffffff166000809054906101000a900473ffffffffffffffffffffffffffffffffffffffff1673ffffffffffffffffffffffffffffffffffffffff1614613b2157600160009054906101000a900473ffffffffffffffffffffffffffffffffffffffff1673ffffffffffffffffffffffffffffffffffffffff166338cc48316040518163ffffffff1660e01b8152600401602060405180830381600087803b158015613aa657600080fd5b505af1158015613aba573d6000803e3d6000fd5b505050506040513d6020811015613ad057600080fd5b81019080805190602001909291905050506000806101000a81548173ffffffffffffffffffffffffffffffffffffffff021916908373ffffffffffffffffffffffffffffffffffffffff1602179055505b60606004604051908082528060200260200182016040528015613b5857816020015b6060815260200190600190039081613b435790505b50905083600060048110613b6857fe5b602002015181600081518110613b7a57fe5b602002602001018190525083600160048110613b9257fe5b602002015181600181518110613ba457fe5b602002602001018190525083600260048110613bbc57fe5b602002015181600281518110613bce57fe5b602002602001018190525083600360048110613be657fe5b602002015181600381518110613bf857fe5b6020026020010181905250613c0e8582856142d4565b9150509392505050565b8060036000848152602001908152602001600020819055505050565b6000806001905082845114613c4857600080fd5b60008090505b83811015613cd857848181518110613c6257fe5b602001015160f81c60f81b7effffffffffffffffffffffffffffffffffffffffffffffffffffffffffffff1916868260208110613c9b57fe5b1a60f81b7effffffffffffffffffffffffffffffffffffffffffffffffffffffffffffff191614613ccb57600091505b8080600101915050613c4e565b50809150509392505050565b6000806000806000606060206040519080825280601f01601f191660200182016040528015613d225781602001600182028038833980820191505090505b5090506000602089600381518110613d3657fe5b602001015160f81c60f81b60f81c60ff16036004019050613d5c8982602085600061384c565b9150606060206040519080825280601f01601f191660200182016040528015613d945781602001600182028038833980820191505090505b509050602282019150613dd08a60208c6001860381518110613db257fe5b602001015160f81c60f81b60f81c60ff16038401602084600061384c565b90506020830151945060208101519350613ded8b601b8787614836565b80975081985050508573ffffffffffffffffffffffffffffffffffffffff16898051906020012060001c73ffffffffffffffffffffffffffffffffffffffff161415613e43576001975050505050505050613e9b565b613e508b601c8787614836565b80975081985050508573ffffffffffffffffffffffffffffffffffffffff16898051906020012060001c73ffffffffffffffffffffffffffffffffffffffff16149750505050505050505b9392505050565b60008060606002856001860181518110613eb857fe5b602001015160f81c60f81b60f81c60ff16016040519080825280601f01601f191660200182016040528015613efc5781602001600182028038833980820191505090505b509050613f0e8585835184600061384c565b506060604080519080825280601f01601f191660200182016040528015613f445781602001600182028038833980820191505090505b509050613f57866004604084600061384c565b50606060626040519080825280601f01601f191660200182016040528015613f8e5781602001600182028038833980820191505090505b509050600160f81b81600081518110613fa357fe5b60200101907effffffffffffffffffffffffffffffffffffffffffffffffffffffffffffff1916908160001a905350613fe48760418803604184600161384c565b5060606040518060400160405280602081526020017ffd94fa71bc0ba10d39d464d0d8f465efeef0a2764e3887fcc9df41ded20f505c815250905061402f816000602085604261384c565b506140d86002836040518082805190602001908083835b602083106140695780518252602082019150602081019050602083039250614046565b6001836020036101000a038019825116818451168082178552505050505050905001915050602060405180830381855afa1580156140ab573d6000803e3d6000fd5b5050506040513d60208110156140c057600080fd5b81019080805190602001909291905050508585613ce4565b9450846140ed576000955050505050506142b4565b6060604051806060016040528060408152602001614de8604091399050606060426040519080825280601f01601f1916602001820160405280156141405781602001600182028038833980820191505090505b50905060fe60f81b8160008151811061415557fe5b60200101907effffffffffffffffffffffffffffffffffffffffffffffffffffffffffffff1916908160001a9053506141948a6003604184600161384c565b50606060028b6045815181106141a657fe5b602001015160f81c60f81b60f81c60ff16016040519080825280601f01601f1916602001820160405280156141ea5781602001600182028038833980820191505090505b5090506141fd8b6044835184600061384c565b506142a66002836040518082805190602001908083835b602083106142375780518252602082019150602081019050602083039250614214565b6001836020036101000a038019825116818451168082178552505050505050905001915050602060405180830381855afa158015614279573d6000803e3d6000fd5b5050506040513d602081101561428e57600080fd5b81019080805190602001909291905050508285613ce4565b975087985050505050505050505b92915050565b80600290805190602001906142d0929190614cdd565b5050565b60008073ffffffffffffffffffffffffffffffffffffffff16600160009054906101000a900473ffffffffffffffffffffffffffffffffffffffff1673ffffffffffffffffffffffffffffffffffffffff16148061435c5750600061435a600160009054906101000a900473ffffffffffffffffffffffffffffffffffffffff1661218c565b145b1561436d5761436b6000612197565b505b600160009054906101000a900473ffffffffffffffffffffffffffffffffffffffff1673ffffffffffffffffffffffffffffffffffffffff166338cc48316040518163ffffffff1660e01b8152600401602060405180830381600087803b1580156143d757600080fd5b505af11580156143eb573d6000803e3d6000fd5b505050506040513d602081101561440157600080fd5b810190808051906020019092919050505073ffffffffffffffffffffffffffffffffffffffff166000809054906101000a900473ffffffffffffffffffffffffffffffffffffffff1673ffffffffffffffffffffffffffffffffffffffff161461454a57600160009054906101000a900473ffffffffffffffffffffffffffffffffffffffff1673ffffffffffffffffffffffffffffffffffffffff166338cc48316040518163ffffffff1660e01b8152600401602060405180830381600087803b1580156144cf57600080fd5b505af11580156144e3573d6000803e3d6000fd5b505050506040513d60208110156144f957600080fd5b81019080805190602001909291905050506000806101000a81548173ffffffffffffffffffffffffffffffffffffffff021916908373ffffffffffffffffffffffffffffffffffffffff1602179055505b60008060009054906101000a900473ffffffffffffffffffffffffffffffffffffffff1673ffffffffffffffffffffffffffffffffffffffff16632ef3accc86856040518363ffffffff1660e01b81526004018080602001838152602001828103825284818151815260200191508051906020019080838360005b838110156145e05780820151818401526020810190506145c5565b50505050905090810190601f16801561460d5780820380516001836020036101000a031916815260200191505b509350505050602060405180830381600087803b15801561462d57600080fd5b505af1158015614641573d6000803e3d6000fd5b505050506040513d602081101561465757600080fd5b81019080805190602001909291905050509050823a02670de0b6b3a76400000181111561468a576000801b91505061482f565b60606146958561487a565b90506000809054906101000a900473ffffffffffffffffffffffffffffffffffffffff1673ffffffffffffffffffffffffffffffffffffffff1663c55c1cb68360008985896040518663ffffffff1660e01b8152600401808581526020018060200180602001848152602001838103835286818151815260200191508051906020019080838360005b8381101561473957808201518184015260208101905061471e565b50505050905090810190601f1680156147665780820380516001836020036101000a031916815260200191505b50838103825285818151815260200191508051906020019080838360005b8381101561479f578082015181840152602081019050614784565b50505050905090810190601f1680156147cc5780820380516001836020036101000a031916815260200191505b5096505050505050506020604051808303818588803b1580156147ee57600080fd5b505af1158015614802573d6000803e3d6000fd5b50505050506040513d602081101561481957600080fd5b8101908080519060200190929190505050925050505b9392505050565b60008060008060405188815287602082015286604082015285606082015260208160808360006001610bb8f192508051915050818193509350505094509492505050565b60606148846148fa565b61488c614d5d565b61489881610400614906565b6148a181614950565b60008090505b83518110156148e3576148d68482815181106148bf57fe5b60200260200101518361495e90919063ffffffff16565b80806001019150506148a7565b506148ed81614983565b8060000151915050919050565b60405180590338823950565b600081905060006020828161491757fe5b0614614930576020818161492757fe5b06602003810190505b808360200181815250506040518084526000815281810160405250505050565b61495b816004614991565b50565b61496b82600283516149b2565b61497e8183614af290919063ffffffff16565b505050565b61498e816007614991565b50565b6149ae601f60058360ff16901b1783614b9d90919063ffffffff16565b5050565b601781116149de576149d98160058460ff16901b60ff161784614b9d90919063ffffffff16565b614aed565b60ff8111614a1f57614a03601860058460ff16901b1784614b9d90919063ffffffff16565b614a1981600185614bdd9092919063ffffffff16565b50614aec565b61ffff8111614a6157614a45601960058460ff16901b1784614b9d90919063ffffffff16565b614a5b81600285614bdd9092919063ffffffff16565b50614aeb565b63ffffffff8111614aa557614a89601a60058460ff16901b1784614b9d90919063ffffffff16565b614a9f81600485614bdd9092919063ffffffff16565b50614aea565b67ffffffffffffffff8111614ae957614ad1601b60058460ff16901b1784614b9d90919063ffffffff16565b614ae781600885614bdd9092919063ffffffff16565b505b5b5b5b5b505050565b614afa614d5d565b82602001518360000151518351011115614b2a57614b29836002614b2386602001518651614c44565b02614c60565b5b60008060008451905085518051602081830101945086518101825260208701935050505b60208110614b715781518352602083019250602082019150602081039050614b4e565b60006001826020036101000a039050801983511681855116818117865250508694505050505092915050565b81602001516001836000015151011115614bc357614bc2826002846020015102614c60565b5b815180516020818301018381536001820183525050505050565b614be5614d5d565b836020015184600001515183011115614c1357614c12846002614c0c876020015186614c44565b02614c60565b5b60006001836101000a0390508451805184818301018684198251161781528582018352505050849150509392505050565b600081831115614c5657829050614c5a565b8190505b92915050565b606082600001519050614c738383614906565b614c7d8382614af2565b50505050565b6040518060400160405280600073ffffffffffffffffffffffffffffffffffffffff168152602001600080191681525090565b60405180608001604052806004905b6060815260200190600190039081614cc55790505090565b828054600181600116156101000203166002900490600052602060002090601f016020900481019282601f10614d1e57805160ff1916838001178555614d4c565b82800160010185558215614d4c579182015b82811115614d4b578251825591602001919060010190614d30565b5b509050614d599190614d77565b5090565b604051806040016040528060608152602001600081525090565b614d9991905b80821115614d95576000816000905550600101614d7d565b5090565b9056fe466c69702074616b696e6720706c6163652c207374616e6420627920666f7220726573756c74732e2e2e536166654d6174683a206d756c7469706c69636174696f6e206f766572666c6f777fb956469c5c9b89840d55b43537e66a98dd4811ea0a27224272c2e5622911e8537a2f8e86a46baec82864e98dd01e9ccc2f8bc5dfc9cbe5a91a290498dd96e4556e636c61696d65642046756e6473207374696c6c20617661696c61626c6520696e20636f6e7472616374a265627a7a72315820602d362941e92c55cc8208d77f342722c7b7658d83004d41767e9340d6fe125764736f6c634300050c0032",
  "source": "pragma solidity 0.5.12;\n\nimport \"./provableAPI.sol\";\nimport { SafeMath } from \"./SafeMath.sol\";\nimport \"./Destructible.sol\";\n\ncontract CoinFlip is usingProvable, destruct{\n\nusing SafeMath for uint;\n\naddress public owner;\nuint contractBalance;\nuint unclaimedFunds;\n\nuint256 constant NUM_RANDOM_BYTES_REQUESTED = 1;\n\nmapping(address => Players) players;\nmapping(bytes32 => Pending) playing;\n\nevent LogNewProvableQuery(address player, string description);\nevent DepositSent(address from, address to, uint amount);\nevent Results(address player, uint256 result, string _results);\nevent UnclaimedGoods(string description);\n\nstruct Players {\n      address player;\n      uint betAmount;\n      bool waiting;\n      uint _balance;\n      uint guess;\n    }\n\nstruct Pending{\n      address _player;\n      bytes32 id;\n\n    }\n\nconstructor() public payable {\n      require (msg.value == .1 ether, \"Deployment minimum not achieved\");\n      owner = msg.sender;\n      provable_setProof(proofType_Ledger);\n    }\n\nmodifier onlyOwner {\n\n      require(msg.sender == owner, \"Youre not the owner\");\n       _;\n    }\n\nmodifier RequiredtoBet {\n\n      require(msg.value >= 0.01 ether, \"Minimum bet not placed\");\n       _;\n    }\n\nfunction placeBet(uint guess) public payable RequiredtoBet returns (bool){\n\n      uint _balance = msg.value.mul(2);\n\n      require (address(this).balance >= _balance, \"Balance not sufficient\");\n      require (players[msg.sender].waiting == false, \"Currently in game\");\n\n      players[msg.sender].player = msg.sender;\n      players[msg.sender].betAmount = msg.value.sub(provable_getPrice(\"random\"));\n      players[msg.sender].waiting = true;\n      players[msg.sender].guess = guess;\n\n      update();\n\n      }\n\nfunction __callback(bytes32 _queryId, string memory _result, bytes memory _proof) public{\n      require(msg.sender == provable_cbAddress());\n\n      if (provable_randomDS_proofVerify__returnCode(_queryId, _result, _proof) == 0){\n      uint256 randomNumber = uint256(keccak256(abi.encodePacked(_result))) % 2;\n      verifyFlip(randomNumber, _queryId);\n      }\n    }\n\nfunction verifyFlip(uint256 randomNumber, bytes32 _queryId) internal {\n\n      Pending memory _bet = playing[_queryId];\n      address _better = _bet._player;\n\n      if(players[_better].guess == randomNumber){\n\n      players[_better]._balance = players[_better]._balance.add(players[_better].betAmount.mul(2));\n\n      unclaimedFunds += players[_better].betAmount.mul(2);\n      emit Results(_better,randomNumber,\"You win!\");\n\n      delete (playing[_queryId]);\n      players[_better].betAmount = 0;\n      players[_better].waiting = false;\n\n      }\n      else {\n\n      emit Results(_better,randomNumber,\"Sorry Try Again!\");\n\n      delete (playing[_queryId]);\n      players[_better].betAmount = 0;\n      players[_better].waiting = false;\n      }\n    }\n\nfunction update() internal {\n\n      uint256 QUERY_EXECUTION_DELAY = 0;\n      uint256 GAS_FOR_CALLBACK = 200000;\n      bytes32 queryId = provable_newRandomDSQuery(\n          QUERY_EXECUTION_DELAY,\n          NUM_RANDOM_BYTES_REQUESTED,\n          GAS_FOR_CALLBACK\n          );\n\n      playing[queryId].id = queryId;\n      playing[queryId]._player = msg.sender;\n\n      emit LogNewProvableQuery(msg.sender,\"Flip taking place, stand by for results...\");\n\n    }\n\nfunction Deposit() public payable onlyOwner returns (uint){\n\n      return address(this).balance;\n    }\n\nfunction withdrawAll() public onlyOwner{\n\n      msg.sender.transfer(address(this).balance - unclaimedFunds);\n\n      if(unclaimedFunds > 0){\n         emit UnclaimedGoods(\"Unclaimed Funds still available in contract\");\n      }\n    }\n\nfunction withdrawRewards() public {\n\n      require(players[msg.sender]._balance > 0, \"No available funds\");\n\n      uint _balance_ = players[msg.sender]._balance;\n      msg.sender.transfer(_balance_);\n      unclaimedFunds -= players[msg.sender]._balance;\n      contractBalance-= players[msg.sender]._balance;\n      delete (players[msg.sender]);\n\n      emit DepositSent(address(this),msg.sender, _balance_);\n    }\n\nfunction getBalance() public view returns (uint) {\n\n      return address(this).balance;\n    }\n\nfunction getBetterBalance() public view returns (uint) {\n\n      return players[msg.sender]._balance;\n    }\n\nfunction getContractAddress() public view returns(address){\n\n      return address(this);\n    }\n\nfunction changeOwner(address newOwner) public onlyOwner returns (address){\n\n      owner = newOwner;\n      return owner;\n    }\n\nfunction checkUnclaimedFunds() public view returns(uint){\n\n      return unclaimedFunds;\n    }\n}\n",
  "sourcePath": "/Users/user/Documents/CoinFlip-dapp/contracts/CoinFlip.sol",
  "compiler": {
    "name": "solc",
    "version": "0.5.12+commit.7709ece9.Emscripten.clang"
  },
  "schemaVersion": "3.0.16",
  "updatedAt": "2021-02-15T05:08:13.243Z",
  "devdoc": {
    "methods": {
      "__callback(bytes32,string)": {
        "details": "The following `__callback` functions are just placeholders ideally     meant to be defined in child contract when proofs are used.     The function bodies simply silence compiler warnings."
      }
    }
  },
  "userdoc": {
    "methods": {}
  }
}